:100000000C94FE000C94071A0C94E0190C94260131
:100010000C9426010C9426010C9426010C942E1AA3
:100020000C9426010C9426010C9426010C94531A6E
:100030000C9426010C9426010C9426010C942601A4
:100040000C9496190C9426010C9464190C943E1986
:100050000C9426010C9426010C9426010C94260184
:100060000C9426010C9426014E414E494E49545998
:10007000494E46CDCCCC3D0AD7233C17B7D1387773
:10008000CC2B329595E6241FB14F0A000020410089
:1000900000C84200401C4620BCBE4CCA1B0E5AAED3
:1000A000C59D7400407A10F35A00A0724E180900E2
:1000B00010A5D4E80000E87648170000E40B5402CD
:1000C0000000CA9A3B000000E1F505000080969808
:1000D00000000040420F000000A086010000001058
:1000E0002700000000E8030000000064000000009A
:1000F000000A00000000000100000000002C76D87B
:1001000088DC674F0823DFC1DFAE59E1B1B796E560
:10011000E3E453C63AE651997696E8E6C28426EBC4
:10012000898C9B62ED407C6FFCEFBC9C9F40F2BAD7
:10013000A56FA5F490055A2AF75C936B6CF9676D6F
:10014000C11BFCE0E40D47FEF520E6B500D0ED90C4
:100150002E0300943577050080841E080000204E91
:100160000A000000C80C333333330F986E1283112A
:1001700041EF8D2114893BE65516CFFEE6DB18D101
:10018000844B381BF77C1D901DA4BBE424203284D3
:10019000725E228100C9F124ECA1E53D2700000038
:1001A0000800020100000304070000000000000036
:1001B0000000000000240027002A000000000023A7
:1001C000002600290000000000250028002B000464
:1001D00004040404040404020202020202030303EE
:1001E00003030301020408102040800102040810E8
:1001F0002001020408102000031B8E1E11241FBEC4
:10020000CFEFD8E0DEBFCDBF12E0A0E0B1E0ECE67A
:10021000F0E502C005900D92A834B107D9F724E0AB
:10022000A8E4B2E001C01D92AD38B207E1F710E0DA
:10023000CDEFD0E004C02197FE010E943F27CC3FC4
:10024000D107C9F70E94CF1B0C9429280C940000F9
:10025000DC0170E0FB01ED51FE4FE4911496EC934C
:10026000149750E0FA01ED51FE4FE4911596EC938E
:10027000159761537E4FFB018491E82FF0E0EE0F5C
:10028000FF1FEB53FE4F8591949117969C938E938D
:100290001697FA01E153FE4FE491F0E0EE0FFF1FD5
:1002A000E554FE4F8591949119969C938E931897DF
:1002B000FB016491E62FF0E0EE0FFF1FEF54FE4FBD
:1002C000859194911B969C938E931A9789E499E556
:1002D0001D969C938E931C9708954F925F926F92F8
:1002E0007F928F929F92AF92BF92CF92DF92EF92C6
:1002F000FF920F931F93CF93DF93EC016A017B0171
:1003000020E030E04FE753E4CB01B6010E94042720
:1003100087FF55C0CAAADBAAECAAFDAA412C512C22
:100320008FE7682E83E4782E4EAA5FAA68AE79AE76
:100330008AAD882309F443C00E8D1F8DF80180809B
:100340009180A280B380A3019201C501B4010E94F3
:1003500004271816D4F4F801408251826282738215
:100360008EA09FA0A8A4B9A4CEA8DFA8E8ACF9AC41
:10037000A7019601C501B4010E94042718169CF438
:10038000CEA2DFA2E8A6F9A61AC0A5019401C70172
:10039000B6010E94042718161CF7F801C082D1820A
:1003A000E282F382DDCFCAA8DBA8ECA8FDA8A701F2
:1003B0009601C501B4010E94612487FDE1CFDF9160
:1003C000CF911F910F91FF90EF90DF90CF90BF9052
:1003D000AF909F908F907F906F905F904F90089517
:1003E0008091C3029091C40201969093C4028093BD
:1003F000C30208958091C1029091C2020196909328
:10040000C2028093C1020895AF92BF92CF92DF9251
:10041000EF92FF920F931F93CF93DF936C017B01B9
:100420008B01040F151FEB015E01AE18BF08C0174A
:10043000D10759F06991D601ED91FC910190F081BD
:10044000E02DC6010995892B79F7C501DF91CF9180
:100450001F910F91FF90EF90DF90CF90BF90AF90E2
:100460000895CF93DF93FC014481558160817181B0
:1004700087E193E00E940402EC0142E050E068E36F
:1004800071E087E193E00E9404028C0F9D1FDF91D1
:10049000CF910895FC01538D448D252F30E0842F9A
:1004A00090E0821B930B541710F0CF96089501979C
:1004B0000895FC01918D828D981761F0A28DAE0F89
:1004C000BF2FB11D5D968C91928D9F5F9F73928F10
:1004D00090E008958FEF9FEF0895FC01918D828D3C
:1004E000981731F0828DE80FF11D858D90E0089509
:1004F0008FEF9FEF0895FC01918D228D892F90E061
:10050000805C9F4F821B91098F739927089587E123
:1005100093E00E947B0221E0892B09F420E0822FE6
:10052000089580E090E0892B29F00E9487028111D4
:100530000C9400000895FC01A48DA80FB92FB11DE3
:10054000A35ABF4F2C91848D90E001968F73992709
:10055000848FA689B7892C93A089B1898C918370E7
:1005600080648C93938D848D981306C00288F389E0
:10057000E02D80818F7D80830895EF92FF920F930D
:100580001F93CF93DF93EC0181E0888F9B8D8C8D3F
:1005900098131AC0E889F989808185FF15C09FB733
:1005A000F894EE89FF896083E889F98980818370F6
:1005B000806480839FBF81E090E0DF91CF911F91A5
:1005C0000F91FF90EF900895F62E0B8D10E00F5FC6
:1005D0001F4F0F731127E02E8C8D8E110CC00FB69C
:1005E00007FCFACFE889F989808185FFF5CFCE0134
:1005F0000E949B02F1CFEB8DEC0FFD2FF11DE35A12
:10060000FF4FF0829FB7F8940B8FEA89FB898081B6
:100610008062CFCFCF93DF93EC01888D8823B9F030
:10062000AA89BB89E889F9898C9185FD03C08081FD
:1006300086FD0DC00FB607FCF7CF8C9185FFF2CF7A
:10064000808185FFEDCFCE010E949B02E9CFDF9133
:10065000CF91089590E0FC01E356FE4F2491FC01F8
:10066000ED51FE4F3491FC01E153FE4FE491EE2336
:10067000C9F0222339F0233001F1A8F4213019F117
:10068000223029F1F0E0EE0FFF1FEB53FE4FA59152
:10069000B4918FB7F894EC91611126C030953E2348
:1006A0003C938FBF08952730A9F02830C9F024303B
:1006B00049F7809180008F7D03C0809180008F7703
:1006C00080938000DFCF84B58F7784BDDBCF84B586
:1006D0008F7DFBCF8091B0008F778093B000D2CF19
:1006E0008091B0008F7DF9CF3E2BDACFCF93DF938F
:1006F00090E0FC01ED51FE4F249181539E4FFC018F
:1007000084918823C9F090E0880F991FFC01EF5471
:10071000FE4FA591B491FC01EB53FE4FC591D491CE
:1007200061110DC09FB7F8948C91209582238C9312
:100730008881282328839FBFDF91CF91089562305D
:1007400051F49FB7F8943C91822F809583238C932A
:10075000E8812E2BEFCF8FB7F894EC912E2B2C93B2
:100760008FBFEACF8E3008F08E5087708064809300
:100770007C0080917A00806480937A0080917A0076
:1007800086FDFCCF809178009091790008953FB765
:10079000F8948091FA029091FB02A091FC02B09132
:1007A000FD0226B5A89B05C02F3F19F00196A11D9B
:1007B000B11D3FBFBA2FA92F982F8827BC01CD01AB
:1007C000620F711D811D911D42E0660F771F881F0A
:1007D000991F4A95D1F708958F929F92AF92BF9239
:1007E000CF92DF92EF92FF920E94C7034B015C0110
:1007F00084E6C82ED12CE12CF12C0E94C703681985
:1008000079098A099B09683E734081059105A8F31F
:1008100021E0C21AD108E108F10888EE880E83E0D1
:10082000981EA11CB11CC114D104E104F10429F7E4
:10083000FF90EF90DF90CF90BF90AF909F908F9000
:1008400008952FB7F8946091F6027091F7028091A5
:10085000F8029091F9022FBF089508952F923F92C8
:100860004F925F926F927F928F929F92AF92BF92C0
:10087000CF92DF92EF92FF920F931F93CF93DF936C
:10088000CDB7DEB72F970FB6F894DEBF0FBECDBF42
:100890009F878E870E9421046D837E838F83988734
:1008A000EE85FF8582A193A1A4A1B5A14D815E81B2
:1008B0006F817885481B590B6A0B7B0B86A597A522
:1008C000A0A9B1A9481759076A077B0708F426C1F0
:1008D000048CF58DE02D80819181A281B381898383
:1008E0009A83AB83BC83AE85BF859096ED91FC91D6
:1008F00029813A814B815C81608171818281938100
:100900000E94EF254B015C01EE85FF8522A533A5F2
:1009100044A555A569817A818B819C810E94EF2530
:100920006B017C01AE85BF8550962D913D914D9117
:100930005C915397C501B4010E94C724EE85FF85E1
:1009400026A137A140A551A50E94F0252B013C010D
:10095000AE85BF8596964D925D926D927C929997E9
:10096000DB96BC91B987B11118C0EE85FF8524854F
:10097000358546855785C701B6010E94C7249B016E
:10098000AC01C301B2010E94EF25AE85BF859696EA
:100990006D937D938D939C939997EE85FF8546A0EB
:1009A00057A060A471A416A907A930AC21AC212FCF
:1009B000302F432D522DC301B2010E940427181677
:1009C0000CF08FC0812F902FA32DB22DEE85FF85C7
:1009D00086A397A3A0A7B1A7F985FF2309F49AC01E
:1009E000AE85BF851C962D913D914D915C911F97D1
:1009F000C501B4010E94C7244B015C01EE85FF854F
:100A00002489358946895789C701B6010E94C724C0
:100A10009B01AC01AE85BF8596966D917D918D91C0
:100A20009C9199970E94EF25A50194010E94F025C1
:100A30006B017C019B01AC01612F702F832D922DE6
:100A40000E94612487FD14C0EE85FF8512A903A9C9
:100A500034A825A8212F302F432D522DB601C701D0
:100A60000E94612487FD04C01C2D0D2D3E2C2F2CCF
:100A7000AE85BF855E96ED91FC91812F902FA32DC1
:100A8000B22D80839183A283B38389819A81AB81C4
:100A9000BC81EE85FF8582A793A7A4A7B5A78D810A
:100AA0009E81AF81B88582A393A3A4A3B5A381E05F
:100AB0002F960FB6F894DEBF0FBECDBFDF91CF915A
:100AC0001F910F91FF90EF90DF90CF90BF90AF906C
:100AD0009F908F907F906F905F904F903F902F905E
:100AE0000895AE85BF85D2968D919D910D90BC9154
:100AF000A02D8A879B87AC87BD879C01AD01C30170
:100B0000B2010E94612487FF67CF8A859B85AC85EF
:100B1000BD855CCF812C912C540170CF80E0C8CF73
:100B20008F929F92AF92BF92CF92DF92EF92FF92FD
:100B3000CF93DF93EC01EE8DFF8DC080D180E280FA
:100B4000F380CEA2DFA2E8A6F9A6EC8DFD8D808110
:100B50009181A281B3818AA79BA7ACA7BDA78EA8CC
:100B60009FA8A8ACB9ACA5019401C701B6010E9429
:100B7000042718162CF48EA29FA2A8A6B9A60CC012
:100B80008AA89BA8ACA8BDA8A5019401C701B6017D
:100B90000E94612487FDEFCFDF91CF91FF90EF900E
:100BA000DF90CF90BF90AF909F908F9008959B0162
:100BB000AC01220F331F441F551F60E074E284EF25
:100BC00090E00E941D273093870020938600E1E883
:100BD000F0E08081887F8160808381E008950F93B9
:100BE0001F93CF93DF93D82FC62F61E00E94760327
:100BF000C11108C060E08D2FDF91CF911F910F913F
:100C00000C942A03CF3F11F461E0F5CFED2FF0E013
:100C1000E356FE4FE491E33049F128F4E23091F0DD
:100C2000C7FFE8CFF1CFE430F1F1E830C9F78091A8
:100C3000B00080628093B000A091B300B0E004EBFC
:100C400010E007C084B5806284BDA7B5B0E008E4B9
:100C500010E02C2F30E00E94E0252FEF30E040E044
:100C600050E00E941D27F801208318C08091800069
:100C7000806880938000A0918600B091870008E88A
:100C800010E02C2F30E00E94E0252FEF30E040E014
:100C900050E00E941D27F80131832083DF91CF911E
:100CA0001F910F9108958091800080628093800051
:100CB000A0918600B09187000AE810E0E2CF809111
:100CC000C3029091C4022091C1023091C202820FEE
:100CD000931F97FD019695958795909310038093A8
:100CE0000F031816190694F42091C702223371F4E9
:100CF00020910A03211113C020910B0330910C03A2
:100D0000820F931F90930C0380930B031092B902F0
:100D10001092BA021092BB021092BC0208952130C8
:100D200059F42091110330911203820F931F909375
:100D3000120380931103EACF223059F420910B0360
:100D400030910C03281B390B30930C0320930B03B9
:100D5000DDCF2330D9F62091110330911203281BE7
:100D6000390B3093120320931103D0CF60E0882316
:100D700049F090910A03813061F48FEF890F8093DD
:100D80000A0361E080E10E942A0361E081E10C94A2
:100D90002A039F5F943040F490930A0360E080E15F
:100DA0000E942A0360E0F2CF10920A03F7CFCF929D
:100DB000DF92EF92FF920F931F936B017C010E94D1
:100DC00021048B019C010C151D052E053F0568F0C3
:100DD0006C197D098E099F0997FF18C0C901B801D8
:100DE0006C197D098E099F0911C0D701C601801BAE
:100DF000910BA20BB30BB7FDF1CF9C01AD016627A0
:100E00007727CB01621B730B840B950B1F910F91FE
:100E1000FF90EF90DF90CF9008958F929F92AF92C6
:100E2000BF92CF92DF92EF92FF92CF93DF93EC01CC
:100E30006A017B01222381F188819981AA81BB818A
:100E40008C0D9D1DAE1DBF1D88839983AA83BB8316
:100E5000688179818A819B810E94D7064B015C0160
:100E6000B7FC0FC0C814D904EA04FB0400F50E94C3
:100E70002104C60ED71EE81EF91EC882D982EA8256
:100E8000FB82DF91CF91FF90EF90DF90CF90BF90EA
:100E9000AF909F908F9008950E9421046C0D7D1D4E
:100EA0008E1D9F1D688379838A839B83D1CF0E9487
:100EB0002104C818D908EA08FB08DBCF0C943102DA
:100EC0004F925F926F927F928F929F92AF92BF925A
:100ED000CF92DF92EF92FF920F931F93CF93DF9306
:100EE000CDB7DEB74C0127013801DC015F965C937A
:100EF0004E935E975D967C936E935C9791963C9330
:100F00002E939097DA961C92FC0112AA13AA14AAA7
:100F100015AA80E090E0AFE7B3E486AB97ABA0AF53
:100F2000B1AF84E690E0A0E0B0E086A797A7A0ABC1
:100F3000B1AB118E108E20E030E0A901C801B701DD
:100F40000E94612487FD53C020E030E0A901C60162
:100F5000B5010E94612487FD4AC020E030E0A9016C
:100F60006B897C898D899E890E94612487FD3FC0A1
:100F700081E090E0D4015B969C938E935A97DB9628
:100F80008C93DB97F40140825182628273821496C3
:100F9000AD92BD92CD92DC9217978B899C89AD89D9
:100FA000BE8980879187A287B387448655866686E7
:100FB00077862DEC3CEC4CEC5DE3C601B5010E945C
:100FC000C724F401608B718B828B938B2DEC3CECEE
:100FD0004CEC5DE36B897C898D899E890E945C263F
:100FE000D40154966D937D938D939C9357970E9453
:100FF0002104F401C6A4D7A4E0A8F1A86C197D09C6
:101000008E099F0962A373A384A395A3DF91CF9157
:101010001F910F91FF90EF90DF90CF90BF90AF9016
:101020009F908F907F906F905F904F900895CF9298
:10103000DF92EF92FF920F931F93CF93E82F880FC9
:10104000FF0BE356FE4FE4918DEF8E0F823068F474
:1010500060E27EE480E090E0CF911F910F91FF90DD
:10106000EF90DF90CF900C94D70580E0E83079F5D1
:10107000C0E081E090E0C12C34E2D32E34EFE32EC7
:10108000F12CCF5FEC2FF0E0EE0FFF1FEA5EFE4F7A
:101090000081118108171907A0F39801A0E4BCE9A9
:1010A0000E94E0259B01AC01C701B6010E941D27EB
:1010B000C8012F3F310509F020F72093B30080913C
:1010C000B100887FC770C82BC093B10081E0CF9179
:1010D0001F910F91FF90EF90DF90CF900895CF93E5
:1010E000DF9388E790E00E948825C3E1D3E08883FE
:1010F00089E790E00E94882589838AE790E00E9432
:1011000088258A838BE790E00E9488258B83CE0117
:10111000DF91CF9108950F931F93CF93DF93EC014D
:1011200088819981009759F02A813B8126173707DA
:1011300030F081E0DF91CF911F910F9108958B01E5
:101140006F5F7F4F0E944527009759F099838883EE
:101150001B830A832C813D81232B59F7FC011082CC
:10116000E8CF80E0E7CFEF92FF920F931F93CF93EA
:10117000DF936115710541F480E0DF91CF911F91FC
:101180000F91FF90EF90089541155105B1F07B014B
:10119000EC010C811D81040F151FB8010E948B0802
:1011A000882351F3288139818C819D81B701820F79
:1011B000931F0E9414281D830C8381E0DECFCF9300
:1011C000DF93EC0188819981009711F00E944C1FF8
:1011D000198218821D821C821B821A82DF91CF9194
:1011E0000895CF93DF93EC01FB0101900020E9F714
:1011F0003197AF01461B570B0E94B308811103C002
:10120000CE010E94DF08CE01DF91CF910895CF93E8
:10121000DF93EC01FB0144815581608171810E9463
:10122000B308811103C0CE010E94DF08CE01DF9117
:10123000CF910895EF92FF920F931F93CF93DF9377
:10124000EC017B018A01BA010E948B0881110BC05D
:10125000CE010E94DF08CE01DF91CF911F910F9147
:10126000FF90EF9008951D830C83B70188819981C9
:101270000E941428F0CFFB0101900020E9F731977C
:10128000AF01461B570B0C941A090F931F93CF9372
:10129000DF93CDB7DEB7A1970FB6F894DEBF0FBED0
:1012A000CDBF8C01CB01BA01F801118210821382EB
:1012B0001282158214822AE0AE014F5F5F4F0E94B6
:1012C0006D20BE016F5F7F4FC8010E943B09A19650
:1012D0000FB6F894DEBF0FBECDBFDF91CF911F9147
:1012E0000F9108950F931F93CF93DF93CDB7DEB780
:1012F00062970FB6F894DEBF0FBECDBF8C01CB0155
:10130000F8011182108213821282158214824AE03F
:10131000BE016F5F7F4F0E944520BE016F5F7F4F10
:10132000C8010E943B0962960FB6F894DEBF0FBE5B
:10133000CDBFDF91CF911F910F9108950F931F9310
:10134000CF93DF93CDB7DEB729970FB6F894DEBF02
:101350000FBECDBF8C01862FF8011182108213823F
:101360001282158214824AE0BE016F5F7F4F90E0C7
:101370000E948F20BE016F5F7F4FC8010E943B0912
:1013800029960FB6F894DEBF0FBECDBFDF91CF9187
:101390001F910F910895EF92FF920F931F93CF9398
:1013A000DF93CDB7DEB7A1970FB6F894DEBF0FBEBF
:1013B000CDBF7C01CB01BA01F701118210821382EB
:1013C0001282158214828E010F5F1F4F22E044E0CB
:1013D0000E94921E009789F0BC01C7010E943B0940
:1013E000A1960FB6F894DEBF0FBECDBFDF91CF91AF
:1013F0001F910F91FF90EF900895C7010E94DF08A1
:10140000EFCF0F931F93CF93DF93CDB7DEB76197E5
:101410000FB6F894DEBF0FBECDBF8C01CB01F80133
:101420001182108213821282158214824AE0BE0158
:101430006F5F7F4F0E948F20BE016F5F7F4FC8019B
:101440000E943B0961960FB6F894DEBF0FBECDBF78
:10145000DF91CF911F910F910895CF93DF93EC010E
:10146000FB018617970749F060817181611571054D
:1014700041F0448155810E941A09CE01DF91CF913C
:1014800008950E94DF08F9CFFC01118210821382B7
:101490001282158214820C942D0AFC011182108292
:1014A0001382128215821482FB0101900020E9F759
:1014B0003197AF01461B570B0C941A09FC01808130
:1014C0009181009711F00C944C1F0895CF92DF92F8
:1014D000EF92FF920F931F93CF93DF93CDB7DEB7B9
:1014E0006E970FB6F894DEBF0FBECDBFC090C3029B
:1014F000D090C4028091600290916102C80ED91E02
:10150000D0926102C0926002E090C102F090C202EB
:1015100080915E0290915F02E80EF91EF0925F02E8
:10152000E0925E020E945F060091C5021091C60221
:10153000C016D1060CF49CC01092FB031092FC0361
:101540001092FD031092FE0360E089E00E94EF0517
:10155000E016F1060CF4E1C010924304109244042A
:10156000109245041092460460E08AE00E94EF0564
:101570001092BE021092BD021092C2021092C102DD
:101580001092C4021092C302C016D1060CF41AC104
:10159000E016F1060CF416C10E945F0660910A0382
:1015A000CE0143960E949E0960910B0370910C033B
:1015B000CE010D960E947209609111037091120381
:1015C000CE0107960E94720960E571E0CE01019696
:1015D0000E944D0ABE01695F7F4FCE0101960E94B5
:1015E000070961E571E00E94F108BE01635F7F4F6A
:1015F0000E94070961E571E00E94F108BE016D5E7D
:101600007F4F0E940709BC01CE0149960E94440AFF
:10161000CE0149960E945E07CE0149960E945E0A5D
:10162000CE0101960E945E0ACE0107960E945E0AD4
:10163000CE010D960E945E0ACE0143960E945E0A7C
:10164000109261021092600210925F0210925E028C
:1016500081E06E960FB6F894DEBF0FBECDBFDF916E
:10166000CF911F910F91FF90EF90DF90CF90089551
:10167000C80184569109C816D90674F080E090E03C
:10168000A0EFB2E48093FB039093FC03A093FD03CF
:10169000B093FE0368E759CF80913D04882309F495
:1016A00057CF83E094E00E942E04882309F450CFA2
:1016B0006091C3027091C402072E000C880B990B35
:1016C0000E9468246093FF037093000480930104D8
:1016D0009093020420E030E044EC52E46091FB037C
:1016E0007091FC038091FD039091FE030E946124A0
:1016F00087FF08C01092FB031092FC031092FD03B9
:101700001092FE036091FB037091FC038091FD0336
:101710009091FE030E94CE2618CFC80184569109ED
:10172000E816F90674F080E090E0A0EFB2E4809350
:10173000430490934404A0934504B093460468E79F
:1017400014CF80918504882309F412CF8BE494E0B0
:101750000E942E04882309F40BCF6091C10270917E
:10176000C202072E000C880B990B0E94682460931C
:101770004704709348048093490490934A0420E0FE
:1017800030E044EC52E46091430470914404809151
:101790004504909146040E94612487FF08C010927E
:1017A0004304109244041092450410924604609140
:1017B00043047091440480914504909146040E9432
:1017C000CE26D3CE80E045CFEF92FF921F93CF93EA
:1017D000DF93CDB7DEB72C970FB6F894DEBF0FBE00
:1017E000CDBF9091C8029817B1F17B01182F80935B
:1017F000C802682F8DE00E942A03612F70E0CE019D
:1018000007960E94720965E571E0CE0101960E947B
:101810004D0ABE01695F7F4FCE0101960E94070904
:101820000E943102CE0101960E945E0ACE01079607
:101830000E945E0AD70114968D919C911597892B71
:1018400051F0ED91FC918081882329F00E94EC03F6
:10185000C7010E9431022C960FB6F894DEBF0FBE6E
:10186000CDBFDF91CF911F91FF90EF9008952F9200
:101870003F924F925F926F927F928F929F92AF9220
:10188000BF92CF92DF92EF92FF920F931F93CF936D
:10189000DF93CDB7DEB7AE970FB6F894DEBF0FBEBD
:1018A000CDBF0E942104009150021091510220915D
:1018B000520230915302C0904C02D0904D02E09001
:1018C0004E02F0904F02AB01BC01401B510B620B6A
:1018D000730B483E534061057105E0F09FEFC91A54
:1018E000D90AE90AF90AC0924C02D0924D02E0925C
:1018F0004E02F0924F02D901C80188519C4FAF4F60
:10190000BF4F8093500290935102A0935202B09324
:101910005302C7CFC0925402D0925502E0925602B1
:10192000F09257020E9421046093AB027093AC02C4
:101930008093AD029093AE02C701B6012CE330E074
:1019400040E050E00E941D276093C00260910603B2
:101950007091070380910803909109036115710547
:101960008105910509F46EC10E94D70697FD6AC1F1
:1019700010920603109207031092080310920903B5
:1019800020E044E650E060E070E086E093E00E94F2
:101990000D0709EC12E0C12CD12C7601D8016D9114
:1019A0007D918D919D918D01611571058105910547
:1019B00009F464C00E94D70697FD60C0F80134970F
:1019C000108211821282138226013701B6E0CB16F3
:1019D000D104E104F10428F0E6E04E0E511C611C34
:1019E000711C44E0842E912CA12CB12C042C04C039
:1019F000B694A794979487940A94D2F7682D61704F
:101A0000842D0E942A03B301A201CE010D960E94EB
:101A10004509B501A4014170552766277727CE01F6
:101A200007960E94450960E671E0CE0101960E948A
:101A30004D0ABE01695F7F4FCE0101960E940709E2
:101A40006BE671E00E94F108BE01635F7F4F0E9468
:101A5000070966E771E00E94F108BC0184EB93E09E
:101A60000E942D0ACE0101960E945E0ACE010796C1
:101A70000E945E0ACE010D960E945E0AFFEFCF1A09
:101A8000DF0AEF0AFF0A2BE0C216D104E104F104D9
:101A900009F084CF3AE0E32EF12C10E000E08091D1
:101AA000F6030E94B2032091F0033091F103821BF0
:101AB000930B080F191F81E0E81AF10881F7B801AC
:101AC000110F880B990B0E94682420E030E040E25F
:101AD00051E40E945C2620E030EC4FE754E40E9481
:101AE0005C2620E030E040EA50E40E94C7242091C8
:101AF000F2033091F3034091F4035091F5030E94F7
:101B00005C262091590230915A0240915B0250911B
:101B10005C020E94F0256B017C01C0925902D092B8
:101B20005A02E0925B02F0925C022AE0A22EB12CF3
:101B300010E000E08FE00E94B203080F191F91E04F
:101B4000A91AB108B9F7B801110F880B990B0E94B7
:101B5000682420E030E040E251E40E945C262AE064
:101B60003EE444E95BE30E94C7242AE63CEB4CE4F4
:101B700050E40E94C7246093AF027093B002809338
:101B8000B1029093B202609158026F5F6093580265
:101B9000653008F457C01091C80270E090E080E012
:101BA0000E9468249B01AC01C701B6010E945C261B
:101BB0006B017C01C092B302D092B402E092B502F4
:101BC000F092B6021123A1F12AE939E949EF5FE366
:101BD0000E94042787FD2CC0B701A601CE010796FD
:101BE0000E94CB0969E771E0CE010D960E944D0A73
:101BF000BE01695F7F4FCE010D960E940709BC01AF
:101C0000CE0101960E94440ABE016F5F7F4F80E0C3
:101C10000E94E40BCE0101960E945E0ACE010D9651
:101C20000E945E0ACE0107960E945E0A1092C702C9
:101C30001092590210925A0210925B0210925C02AA
:101C4000109258028091C802882309F4DFC0809165
:101C5000C702982F9D7F913009F0A1C12091C50244
:101C60003091C602121613060CF099C18091C3027E
:101C70009091C402821793070CF47AC14091F70344
:101C80005091F8036091F9037091FA03CE014396E5
:101C90000E94CB096091C3027091C402CE010D96DF
:101CA0000E9472096091C702CE0101960E949E09AE
:101CB000BE016F5F7F4FCE0107960E94440A6DE41C
:101CC00071E0CE0107960E94F108BE01635F7F4F6D
:101CD0000E94070961E571E00E94F108BE016D5E96
:101CE0007F4F0E940709BC01CE0149960E94440A19
:101CF000CE0149960E945E07CE0149960E945E0A77
:101D0000CE0107960E945E0ACE0101960E945E0AED
:101D1000CE010D960E945E0ACE0143960E945E0A95
:101D20001092C6021092C5021092F7031092F803A7
:101D30001092F9031092FA031092C4021092C30297
:101D40006091F7037091F8038091F9039091FA0381
:101D50000E94CE2689E00E94EF059091C0028091FA
:101D6000BF02981709F494C060910A03CE0143960C
:101D70000E949E0960910B0370910C03CE010D9699
:101D80000E9472096091110370911203CE010796AF
:101D90000E94720960E571E0CE0101960E944D0A31
:101DA000BE01695F7F4FCE0101960E94070961E580
:101DB00071E00E94F108BE01635F7F4F0E94070936
:101DC00061E571E00E94F108BE016D5E7F4F0E94E7
:101DD0000709BC01CE0149960E94440ACE014996EA
:101DE0000E945E07CE0149960E945E0ACE010196CE
:101DF0000E945E0ACE0107960E945E0ACE010D96F1
:101E00000E945E0ACE0143960E945E0A9091C00233
:101E10008091BF029817E1F14091B3025091B40252
:101E20006091B5027091B602CE010D960E94CB0969
:101E30004091AF025091B0026091B1027091B20234
:101E4000CE0107960E94CB0969EC71E0CE010196A4
:101E50000E944D0ABE01695F7F4FCE0101960E942C
:101E6000070967ED71E00E94F108BE01635F7F4FD3
:101E70000E9407090E943102CE0101960E945E0A6B
:101E8000CE0107960E945E0ACE010D960E945E0A60
:101E900004EF11E086E0282E98E7392E87E193E0E1
:101EA0000E947B021816190614F00C94011987E1A0
:101EB00093E00E945902F82E8AE0F81621F09DE086
:101EC000F9120C94BD1844E652E067ED71E086E625
:101ED00092E00E941E207C01009709F48EC748E022
:101EE00050E06CEC71E00E941B28892B09F003C5BF
:101EF00044E652E067ED71E090E080E00E941E2031
:101F00000E94D91FF82E80936302682F70E090E042
:101F100080E00E9466246093F7037093F803809337
:101F2000F9039093FA0360933F0470934004809305
:101F30004104909342046F2DCE0101960E949E09A8
:101F400062ED71E0CE0107960E944D0ABE016F5FFF
:101F50007F4FCE0107960E94070967ED71E00E944E
:101F6000F1080E943102CE0107960E945E0A0CC55C
:101F70008091C3029091C402281B390B283C310583
:101F80000CF0DECE80E090E0ACEDB2E48093F7039D
:101F90009093F803A093F903B093FA03D1CE9EEF88
:101FA000980F923008F094C02091C5023091C6027B
:101FB000121613060CF08CC08091C1029091C202DF
:101FC000821793070CF46EC040913F045091400477
:101FD0006091410470914204CE0143960E94CB0966
:101FE0006091C1027091C202CE010D960E947209E9
:101FF0006091C702CE0101960E949E09BE016F5FEB
:102000007F4FCE0107960E94440A6DE471E0CE0135
:1020100007960E94F108BE01635F7F4F0E94070987
:1020200061E571E00E94F108BE016D5E7F4F0E9484
:102030000709BC01CE0149960E94440ACE01499687
:102040000E945E07CE0149960E945E0ACE01079665
:102050000E945E0ACE0101960E945E0ACE010D9694
:102060000E945E0ACE0143960E945E0A1092C6024A
:102070001092C50210923F04109240041092410445
:10208000109242041092C2021092C10260913F0469
:102090007091400480914104909142040E94CE26A8
:1020A0008AE059CE8091C1029091C202281B390B5F
:1020B000283C31055CF780E090E0ACEDB2E4809321
:1020C0003F0490934004A0934104B0934204DECFB8
:1020D0009FEF980F933008F09CC02091C50230917B
:1020E000C602121613060CF062C22091C002909133
:1020F000BF02291709F45BC28091C3029091C40208
:102100002091C1023091C202821B930B9093100365
:1021100080930F03609143047091440480914504BF
:10212000909146040E94CE26CE014F960E947209DD
:102130006091C1027091C202CE0149960E9472095B
:102140006091C3027091C402CE0143960E9472094D
:1021500060910F0370911003CE010D960E947209D9
:102160006091C702CE0101960E949E09BE016F5F79
:102170007F4FCE0107960E94440A6DE471E0CE01C4
:1021800007960E94F108BE01635F7F4F0E94070916
:1021900061E571E00E94F108BE016D5E7F4F0E9413
:1021A000070961E571E00E94F108BE01675E7F4F9B
:1021B0000E94070961E571E00E94F108BE01615EBD
:1021C0007F4F0E940709BC01CE0185960E94440AF8
:1021D000CE0185960E945E07CE0185960E945E0A1A
:1021E000CE0107960E945E0ACE0101960E945E0A09
:1021F000CE010D960E945E0ACE0143960E945E0AB1
:10220000CE0149960E945E0ACE014F960E945E0A58
:10221000A4CD843009F002C1C090F703D090F80338
:10222000E090F903F090FA0320E030E0A901C70143
:10223000B6010E94042718160CF0CBC020E030E055
:1022400040E853E4C701B6010E94612487FFC1C082
:102250006091BD027091BE026031A7E27A0708F476
:10226000B8C0CE014F960E94010A6091C1027091E0
:10227000C202CE0149960E9472096091C302709118
:10228000C402CE0143960E9472096091F7037091D7
:10229000F8038091F9039091FA030E94CE26CE01B3
:1022A0000D960E9472096091C702CE0101960E94AC
:1022B0009E09BE016F5F7F4FCE0107960E94440AC0
:1022C0006DE471E0CE0107960E94F108BE01635FE4
:1022D0007F4F0E94070961E571E00E94F108BE018D
:1022E0006D5E7F4F0E94070961E571E00E94F10871
:1022F000BE01675E7F4F0E94070961E571E00E94A1
:10230000F108BE01615E7F4F0E940709BC01CE014A
:1023100085960E94440ACE0185960E945E07CE01F2
:1023200085960E945E0ACE0107960E945E0ACE0143
:1023300001960E945E0ACE010D960E945E0ACE01B1
:1023400043960E945E0ACE0149960E945E0ACE0123
:102350004F960E945E0A6091F7037091F803809196
:10236000F9039091FA030E94CE2689E00E94EF05BE
:102370006091F7037091F8038091F9039091FA034B
:102380000E94CE268AE00E94EF050E94EC0320E026
:1023900030E040E85FE36091F7037091F8038091CB
:1023A000F9039091FA030E94F0256093F70370936C
:1023B000F8038093F9039093FA031092C4021092E9
:1023C000C3021092C2021092C1021092BE02109279
:1023D000BD0220E030E040E853E46091F7037091E3
:1023E000F8038091F9039091FA030E94042787FD76
:1023F000B4CC1092F7031092F8031092F9031092E4
:10240000FA0360E089E00E94EF056091F7037091A4
:10241000F8038091F9039091FA0340CE853009F0DA
:10242000C6C0C090F703D090F803E090F903F09095
:10243000FA0320E030E0A901C701B6010E94042799
:1024400087FD8BCC0091BD021091BE020031B7E236
:102450001B0708F482CC20E030E0A901C701B601D7
:102460000E94042718160CF07BC0B801CE014F96CD
:102470000E94010A6091C1027091C202CE01499688
:102480000E9472096091C3027091C402CE0143960A
:102490000E9472096091F7037091F8038091F9032B
:1024A0009091FA030E94CE26CE010D960E947209E9
:1024B0006091C702CE0101960E949E09BE016F5F26
:1024C0007F4FCE0107960E94440A6DE471E0CE0171
:1024D00007960E94F108BE01635F7F4F0E940709C3
:1024E00061E571E00E94F108BE016D5E7F4F0E94C0
:1024F000070961E571E00E94F108BE01675E7F4F48
:102500000E94070961E571E00E94F108BE01615E69
:102510007F4F0E940709BC01CE0185960E94440AA4
:10252000CE0185960E945E07CE0185960E945E0AC6
:10253000CE0107960E945E0ACE0101960E945E0AB5
:10254000CE010D960E945E0ACE0143960E945E0A5D
:10255000CE0149960E945E0ACE014F960E945E0A05
:102560006091F7037091F8038091F9039091FA0359
:102570000E94CE2689E00E94EF056091F7037091DA
:10258000F8038091F9039091FA030E94CE268AE025
:102590000E94EF051092C4021092C3021092C20270
:1025A0001092C1021092BE021092BD02D6CB8630AC
:1025B00081F48091BD029091BE028031974208F46F
:1025C000CCCB0E94660A882309F4C7CB1092C702BD
:1025D000C4CB823309F0BDC08091BD029091BE0290
:1025E0008031974208F4B9CB0E94660A882309F427
:1025F000B4CB4091B9025091BA026091BB02709184
:10260000BC02CE0149960E94CB0960910B037091E8
:102610000C03CE0143960E947209609111037091E0
:102620001203CE010D960E94720960910A03CE0139
:1026300007960E949E0962EA71E0CE0101960E940F
:102640004D0ABE01695F7F4FCE0101960E940709C6
:1026500061E571E00E94F108BE01635F7F4F0E9457
:10266000070961E571E00E94F108BE016D5E7F4FD0
:102670000E94070961E571E00E94F108BE01675EF2
:102680007F4F0E940709BC01CE014F960E94440A69
:10269000CE014F960E945E07CE014F960E945E0AC1
:1026A000CE0101960E945E0ACE0107960E945E0A44
:1026B000CE010D960E945E0ACE0143960E945E0AEC
:1026C000CE0149960E945E0A84EF91E09093C60283
:1026D0008093C50283E38093C70280910A0381112E
:1026E00004C082E00E94B60638CB813041F52091CB
:1026F0000B0330910C038091B7029091B80284567D
:102700009109281739076CF7253631050CF025CBD0
:1027100080910D0390910E032091110330911203CB
:10272000AC01475E53402417350714F481E0DACF3B
:1027300084569109281739070CF40FCBD2CF823079
:10274000A9F3833009F009CB1092C6021092C5029A
:102750003DCF833309F0BEC08091BD029091BE028F
:102760008031974208F4F9CA0E94660A882309F466
:10277000F4CA4091B9025091BA026091BB027091C3
:10278000BC02CE0149960E94CB0960910B03709167
:102790000C03CE0143960E9472096091110370915F
:1027A0001203CE010D960E94720960910A03CE01B8
:1027B00007960E949E0967EB71E0CE0101960E9488
:1027C0004D0ABE01695F7F4FCE0101960E94070945
:1027D00061E571E00E94F108BE01635F7F4F0E94D6
:1027E000070961E571E00E94F108BE016D5E7F4F4F
:1027F0000E94070961E571E00E94F108BE01675E71
:102800007F4F0E940709BC01CE014F960E94440AE7
:10281000CE014F960E945E07CE014F960E945E0A3F
:10282000CE0101960E945E0ACE0107960E945E0AC2
:10283000CE010D960E945E0ACE0143960E945E0A6A
:10284000CE0149960E945E0A80E00E94B60682E3AD
:102850008093C70280910A03811109C08091B70259
:102860009091B8029093C6028093C50276CA8130D7
:1028700019F40E946A1AF6CF823021F580910B0379
:1028800090910C03853691054CF780910D03909142
:102890000E032091110330911203AC0143565109EC
:1028A0002417350734F384569109281739070CF497
:1028B00054CA82E00E94B60683E38093C70284EF85
:1028C00091E0D0CF833009F048CA809111039091F4
:1028D0001203C8CF811141CA6AE371E0CE010196AB
:1028E0000E944D0ABE016F5F7F4F80E00E94E40BA3
:1028F000CE0101968BCC48E050E069ED71E0C70154
:102900000E941B28892B09F044C044E652E067ED81
:1029100071E090E080E00E941E200E94D91F7C019F
:1029200044E652E067ED71E090E080E00E941E20F6
:102930000E94D91FBC01CE0101960E947209B70105
:10294000CE0107960E94720961EE71E0CE010D96EC
:102950000E944D0ABE01695F7F4FCE010D960E9415
:10296000070967ED71E00E94F108BE016F5F7F4FBC
:102970000E9407090E943102CE010D960E945E0A54
:10298000CE0107960E945E0ACE0101960E945E0A61
:1029900034C248E050E06AEE71E0C7010E941B2893
:1029A000892B49F544E652E067ED71E090E080E064
:1029B0000E941E200E94D91FFF24F394892B09F442
:1029C000F12CF092C8026F2D8DE00E942A036F2D2A
:1029D00070E0CE0101960E94720965E571E0CE01BA
:1029E00007960E944D0ABE016F5F7F4FCE0107968A
:1029F0000E940709B6CA48E050E064EF71E0C701E1
:102A00000E941B28892BF1F444E652E067ED71E047
:102A100090E080E00E941E200E94D91FFF24F394C2
:102A2000892B09F4F12CF09262026F2D84E00E9450
:102A30002A036F2D70E0CE0101960E9472096CEF9F
:102A400071E0CDCF48E050E065E072E0C7010E9440
:102A50001B28892B09F05AC144E652E067ED71E06A
:102A600090E080E00E941E200E94D51F6093040128
:102A700070930501809306019093070144E652E0AC
:102A800067ED71E090E080E00E941E200E94D51F5B
:102A9000609308017093090180930A0190930B01E0
:102AA00044E652E067ED71E090E080E00E941E2075
:102AB0000E94D51F6B017C01C0920C01D0920D01C8
:102AC000E0920E01F0920F018091040190910501B6
:102AD000A0910601B09107018BA79CA7ADA7BEA747
:102AE00020E030E0A901BC01CD010E94612487FDF6
:102AF000B4C08090080190900901A0900A01B090A4
:102B00000B0120E030E0A901C501B4010E9461245D
:102B100087FDA3C020E030E0A901C701B6010E94F3
:102B2000612487FD9AC081E020916504309166049C
:102B30002130310509F080E0809386048BA59CA5A7
:102B4000ADA5BEA580934B0490934C04A0934D0477
:102B5000B0934E0480924F0490925004A09251047E
:102B6000B0925204C0925304D0925404E09255049F
:102B7000F09256046091790470917A0480917B04FC
:102B800090917C040E94662420E030E04AE754E4FF
:102B90000E945C262B013C018BA59CA5ADA5BEA582
:102BA0008093570490935804A0935904B0935A0407
:102BB000A3019201C501B4010E94C7244B015C012D
:102BC00080925B0490925C04A0925D04B0925E04DB
:102BD000A3019201C701B6010E945C262B013C01B2
:102BE00040925F04509260046092610470926204AB
:102BF0008091630490916404019779F52BA53CA51D
:102C00004DA55EA560E070E0CB010E94EF256093CA
:102C10005704709358048093590490935A04A50163
:102C2000940160E070E0CB010E94EF2560935B04AB
:102C300070935C0480935D0490935E04A301920101
:102C400060E070E0CB010E94EF2560935F04709319
:102C500060048093610490936204B701A601CE01E1
:102C600007960E94CB09409108015091090160919B
:102C70000A0170910B01CE010D960E94CB09409183
:102C80000401509105016091060170910701CE0188
:102C900043960E94CB0969E072E0CE0149960E94FA
:102CA0004D0ABE016D5E7F4FCE0149960E94070915
:102CB00061E571E00E94F108BE01635F7F4F0E94F1
:102CC000070961E571E00E94F108BE01695F7F4F6D
:102CD0000E940709BC01CE0101960E94440ACE0160
:102CE00001960E945E07CE0101960E945E0ACE0107
:102CF00049960E945E0ACE0143960E945E0ACE016A
:102D00000D960E945E0ACE01079640CE48E050E044
:102D10006EE072E0C7010E941B28892B09F087C072
:102D200044E652E067ED71E090E080E00E941E20F2
:102D30000E94F71F7093C6026093C50244E652E0FA
:102D400067ED71E090E080E00E941E200E94D91F94
:102D50008093630244E652E067ED71E090E080E02A
:102D60000E941E200E94D91F8093C702813081F4E7
:102D70006091630270E090E080E00E9466246093BE
:102D8000F7037093F8038093F9039093FA0335C027
:102D9000823081F46091630270E090E080E00E94F4
:102DA000662460933F0470934004809341049093A1
:102DB000420423C0833011F0853021F56091630215
:102DC00070E090E080E00E9466246093F7037093C7
:102DD000F8038093F9039093FA0360933F04709390
:102DE0004004809341049093420410926102109237
:102DF000600210925F0210925E02109266021092C0
:102E00005D024CC8843009F4B3CF8730B1F76091CC
:102E1000630270E090E080E00E9466246093F70314
:102E20007093F8038093F9039093FA03BACF48E0C4
:102E300050E062E172E0C7010E941B28892B09F073
:102E400077C11092F7031092F8031092F9031092D1
:102E5000FA0310923F041092400410924104109221
:102E600042041092C6021092C50210920A031092F8
:102E7000C7021092C2021092C1021092C4021092B4
:102E8000C302109261021092600210925F021092CF
:102E90005E02109212031092110310920C03109212
:102EA0000B0310920E0310920D031092B8021092B1
:102EB000B70244E652E067ED71E090E080E00E94E6
:102EC0001E200E94F71F6093C70244E652E067EDA0
:102ED00071E090E080E00E941E200E94D91F7C01DA
:102EE00044E652E067ED71E090E080E00E941E2031
:102EF0000E94D91FD82EC92E44E652E067ED71E03A
:102F000090E080E00E941E200E94D51F4B015C01D2
:102F10008091C702823309F083C0F0920E03E092E1
:102F20000D03D092B702C092B8023092630280E0E3
:102F300090E0A0EFB2E48093F7039093F803A0939E
:102F4000F903B093FA0380933F0490934004A09355
:102F50004104B0934204D092C502C092C6026AE313
:102F600071E0CE0101960E944D0ABE016F5F7F4F56
:102F700081E00E94E40BCE0101960E945E0AB50139
:102F8000A401CE0107960E94CB096D2D7C2DCE01A8
:102F90000D960E947209B701CE0143960E947209F4
:102FA0006091C702CE014F960E949E09BE01615EEC
:102FB0007F4FCE0149960E94440A61E571E0CE013F
:102FC00049960E94F108BE016D5E7F4F0E9407097D
:102FD00061E571E00E94F108BE01635F7F4F0E94CE
:102FE000070961E571E00E94F108BE01695F7F4F4A
:102FF0000E940709BC01CE0101960E94440ACE013D
:1030000001960E945E07CE0101960E945E0ACE01E3
:1030100049960E945E0ACE014F960E945E0A6BCED0
:10302000882309F4ACCF863009F057C0F092B8027B
:10303000E092B702D09263026D2D70E090E080E0E4
:103040000E9466246093F7037093F8038093F9035A
:103050009093FA0360933F0470934004809341047B
:1030600090934204F092C602E092C502B701CE01ED
:1030700007960E9472096091C702CE0143960E9492
:103080009E09BE016D5E7F4FCE010D960E94440ADF
:1030900061E571E0CE010D960E94F108BE01695F05
:1030A0007F4F0E940709BC01CE0101960E94440A8D
:1030B000CE0101960E945E07CE0101960E945E0A33
:1030C000CE010D960E945E0ACE0143960E945E0AD2
:1030D000CE0107960E945E0A42CF873009F04FCF9B
:1030E000F092B802E092B702D09263026D2D70E0C8
:1030F00090E080E00E9466246093F7037093F803E9
:103100008093F9039093FA0360933F047093400413
:1031100080934104909342041093C6020093C50229
:103120002092C70282E00E94B60664EF71E09FCF52
:1031300060915D02CE0107960E949E0965E172E0F2
:10314000CE010D960E944D0ABE01695F7F4FCE01F0
:103150000D960E940709BC01CE0101960E94440A07
:10316000CE0101960E945E07CE0101960E945E0A82
:10317000CE010D960E945E0AC6CD8F2D0F2C000C3D
:10318000990B0E940428892B11F40C944E0FE091A6
:103190005D0261E06E0F60935D02F0E0EA59FD4F61
:1031A000F082E62FF0E0EA59FD4F1082603410F40F
:1031B0000C944E0FCE0107960E949E0969E272E0C0
:1031C000CE010D960E944D0ABE01695F7F4FCE0170
:1031D0000D960E940709BC01CE0101960E94440A87
:1031E000CE0101960E945E07CE0101960E945E0A02
:1031F000CE010D960E945E0ACE0107960E945E0ADD
:10320000FECD8091AB029091AC02A091AD02B09145
:10321000AE024091A7025091A8026091A90270915C
:10322000AA0284179507A607B70741F08093A70263
:103230009093A802A093A902B093AA028091C00221
:103240009091BF0289138093BF02AE960FB6F89497
:10325000DEBF0FBECDBFDF91CF911F910F91FF90C9
:10326000EF90DF90CF90BF90AF909F908F907F9026
:103270006F905F904F903F902F9008951F920F9204
:103280000FB60F9211242F933F934F935F936F9339
:103290007F938F939F93AF93BF93EF93FF9387E1B8
:1032A00093E00E949B02FF91EF91BF91AF919F919C
:1032B0008F917F916F915F914F913F912F910F90DF
:1032C0000FBE0F901F9018951F920F920FB60F927E
:1032D00011242F938F939F93EF93FF93E0912703F4
:1032E000F09128038081E0912D03F0912E0382FD5F
:1032F0001BC09081809130038F5F8F7320913103C9
:10330000821741F0E0913003F0E0E95EFC4F958FC9
:1033100080933003FF91EF919F918F912F910F90A8
:103320000FBE0F901F9018958081F4CF1F920F92BF
:103330000FB60F9211242F933F938F939F93AF93C8
:10334000BF938091F6029091F702A091F802B0919C
:10335000F9023091F50223E0230F2D3758F501963D
:10336000A11DB11D2093F5028093F6029093F70200
:10337000A093F802B093F9028091FA029091FB02B7
:10338000A091FC02B091FD020196A11DB11D809398
:10339000FA029093FB02A093FC02B093FD02BF914E
:1033A000AF919F918F913F912F910F900FBE0F90F2
:1033B0001F90189526E8230F0296A11DB11DD2CFAC
:1033C0001F920F920FB60F9211242F933F934F939A
:1033D0005F936F937F938F939F93AF93BF93EF937D
:1033E000FF93E0910201F09103010995FF91EF91A4
:1033F000BF91AF919F918F917F916F915F914F910D
:103400003F912F910F900FBE0F901F9018951F9214
:103410000F920FB60F9211242F933F934F935F9308
:103420006F937F938F939F93AF93BF93EF93FF938C
:10343000E0910001F09101010995FF91EF91BF9199
:10344000AF919F918F917F916F915F914F913F913C
:103450002F910F900FBE0F901F9018951F920F92F3
:103460000FB60F9211242F933F934F935F936F9357
:103470007F938F939F93AF93BF93EF93FF93F0E06E
:10348000E0E00995FF91EF91BF91AF919F918F91EE
:103490007F916F915F914F913F912F910F900FBE50
:1034A0000F901F9018951F920F920FB60F92112434
:1034B0008F939F938091BD029091BE02019690934D
:1034C000BE028093BD029F918F910F900FBE0F900F
:1034D0001F9018950F931F93CF93DF93CDB7DEB74F
:1034E000A4970FB6F894DEBF0FBECDBF8091110335
:1034F000909112039C0128513C4F3093100320936C
:103500000F0300910D0310910E03A80143565109BA
:10351000241735070CF474C0081B190B0456110945
:10352000B801CE0107960E94720960910B03709159
:103530000C03CE010D960E947209609111037091E7
:103540001203CE0143960E94720960910A03CE01D4
:1035500049960E949E096BE371E0CE014F960E944E
:103560004D0ABE01675E7F4FCE014F960E9407094C
:1035700061E571E00E94F108BE016D5E7F4F0E941F
:10358000070961E571E00E94F108BE01635F7F4FAA
:103590000E94070961E571E00E94F108BE01695FC0
:1035A0007F4F0E940709BC01CE0101960E94440A88
:1035B000CE0101960E945E07CE0101960E945E0A2E
:1035C000CE014F960E945E0ACE0149960E945E0A85
:1035D000CE0143960E945E0ACE010D960E945E0ABD
:1035E000CE0107960E945E0AC801A4960FB6F89411
:1035F000DEBF0FBECDBFDF91CF911F910F91089518
:1036000008EE13E0F1CF4F925F926F927F928F920C
:103610009F92AF92BF92CF92DF92EF92FF920F9361
:103620001F93CF93DF9300D000D000D0CDB7DEB78B
:10363000E7E1F3E01382128288EE93E0A0E0B0E0CD
:1036400084839583A683B7838AE291E09183808304
:1036500085EC90E09587848784EC90E09787868757
:1036600080EC90E0918B808B81EC90E0938B828B4F
:1036700082EC90E0958B848B86EC90E0978B868B28
:10368000118E128E138E148E80910C018D83909169
:103690000D019E8390900E0180900F0140900801D3
:1036A0005090090160900A0170900B018091040113
:1036B00090910501A0910601B091070189839A8339
:1036C000AB83BC838F929F929E819F93AD81AF937A
:1036D00063015201E980FA800B811C812FE334E001
:1036E00043E454E067E474E08BE494E00E946007F4
:1036F0008F929F92BE81BF938D818F93E980FA80D4
:103700000B811C8127EF33E04BEF53E06FEF73E049
:1037100083E094E00E946007E0EFF3E080E092E055
:10372000918380838EE086838DEC9CECACECBDE3D2
:1037300082839383A483B58348E067E08EED93E0B2
:103740000E94280146E065E08CEC93E00E9428018D
:103750004CE06BE08AEB93E00E9428010FB6F894EE
:10376000DEBF0FBECDBF6AE371E084EB93E0269627
:103770000FB6F894DEBF0FBECDBFDF91CF911F9182
:103780000F91FF90EF90DF90CF90BF90AF909F9000
:103790008F907F906F905F904F900C944D0ACF93D5
:1037A000DF93CDB7DEB762970FB6F894DEBF0FBEDA
:1037B000CDBF789484B5826084BD84B5816084BDBA
:1037C00085B5826085BD85B5816085BD80916E00BF
:1037D000816080936E0010928100809181008260F0
:1037E000809381008091810081608093810080912D
:1037F00080008160809380008091B100846080931C
:10380000B1008091B00081608093B00080917A0017
:10381000846080937A0080917A00826080937A003D
:1038200080917A00816080937A0080917A0080682C
:1038300080937A001092C10060E08FE00E947603CE
:1038400060E08EE00E94760361E089E00E947603EA
:1038500061E08AE00E94760361E080E10E947603E5
:1038600061E081E10E94760362E082E00E947603DB
:1038700062E083E00E94760361E084E00E947603C8
:1038800061E08DE00E94760360E08DE00E942A03F3
:1038900060E084E00E942A0360E080E10E942A0345
:1038A00061E081E10E942A03E0912703F09128035F
:1038B00082E08083E0912303F09124031082E09161
:1038C0002503F091260380E1808310922F03E0917D
:1038D0002B03F0912C0386E08083E0912903F09183
:1038E0002A03808180618083E0912903F0912A037B
:1038F000808188608083E0912903F0912A03808190
:1039000080688083E0912903F0912A0380818F7D74
:1039100080830E946F086AE371E0CE0101960E94E5
:103920004D0ACE0101960E945E07CE0101960E94CB
:103930005E0A65E070E0CE0107960E9472096DE3B1
:1039400072E0CE010D960E944D0ABE01695F7F4F65
:10395000CE010D960E940709BC01CE0101960E947E
:10396000440ACE0101960E945E07CE0101960E9494
:103970005E0ACE010D960E945E0ACE0107960E9455
:103980005E0A65E070E0CE0107960E94720962E46B
:1039900072E0CE010D960E944D0ABE01695F7F4F15
:1039A000CE010D960E940709BC01CE0101960E942E
:1039B000440ACE0101960E945E07CE0101960E9444
:1039C0005E0ACE010D960E945E0ACE0107960E9405
:1039D0005E0A8091130390911403A0911503B09196
:1039E00016038F3F9F4FAF4FBF4FC1F488E790E062
:1039F0000E9488258C3229F06CE288E790E00E94D2
:103A0000902589E790E00E948825813029F061E0C7
:103A100089E790E00E9490250E946F0821E044E62B
:103A200050E060E070E086E093E00E940D0721E046
:103A300048E853E160E070E082E093E00E940D0707
:103A400021E044E650E060E070E08EEF92E00E94FA
:103A50000D07809180008C7F809380008091810091
:103A6000877E80618093810064EF71E080E090E068
:103A70000E94D7058091B0008C7F81608093B00058
:103A80008091B10088608093B10010E08EE390E0F7
:103A9000812C34E2932E34EFA32EB12C1F5FE12F43
:103AA000F0E0EE0FFF1FEA5EFE4FE080F180E816C7
:103AB000F906A0F39701A8EEB3E00E94E0259B0170
:103AC000AC01C501B4010E941D27C7012F3F31057C
:103AD00009F020F72093B3008091B100887F177020
:103AE000182B1093B10089E00E9417088AE00E9409
:103AF000170860E089E00E94EF0560E08AE00E941C
:103B0000EF058AE0E82EF12C10E000E08091F6034A
:103B10000E94B203080F191F81E0E81AF108B1F7FB
:103B2000C8016AE070E00E9409277093F103609376
:103B3000F0031092F7031092F8031092F903109219
:103B4000FA0380913D04811104C083E094E00E9457
:103B5000900581E080933D0440E050E06CEB72E41E
:103B600083E094E00E946D01609131047091320411
:103B700080913304909134040E9466249B01AC012F
:103B800060E070E080EA92E40E945C266B017C01B8
:103B9000AC019B0160911304709114048091150491
:103BA000909116040E94C724609313047093140428
:103BB0008093150490931604A70196016091170451
:103BC000709118048091190490911A040E945C2647
:103BD00060931704709318048093190490931A0447
:103BE00080E590E0A0E0B0E080933104909332044F
:103BF000A0933304B093340410923F041092400415
:103C0000109241041092420480918504811104C0F5
:103C10008BE494E00E94900581E08093850440E06D
:103C200050E06CEB72E48BE494E00E946D016091D3
:103C3000790470917A0480917B0490917C040E94B5
:103C400066249B01AC0160E070E080EA92E40E948F
:103C50005C266B017C01AC019B0160915B0470915F
:103C60005C0480915D0490915E040E94C72460937F
:103C70005B0470935C0480935D0490935E04A701E1
:103C8000960160915F04709160048091610490914D
:103C900062040E945C2660935F04709360048093CA
:103CA00061049093620480E590E0A0E0B0E080932E
:103CB000790490937A04A0937B04B0937C0480EF02
:103CC00091E09093010180930001809169008C7FC5
:103CD000826080936900E89A8AEF91E090930301F3
:103CE0008093020180916900837F886080936900DE
:103CF000E99AF89480916F00826080936F007894C5
:103D000000E010E00E94370C01151105D9F30E9464
:103D100087028823B9F30E940000F4CF84EB93E07C
:103D20000C945E0AEF920F931F93CF93DF93E801F9
:103D300034E047FD34E1042E000C550B57FF03C05F
:103D4000519541955109E32E022F242FAE010E9477
:103D5000A920CE01DF91CF911F910F91EF9008958F
:103D60000F931F93CF93DF938230910510F482E07D
:103D700090E0E0918904F0918A0430E020E0B0E026
:103D8000A0E0309799F42115310509F44AC0281BA9
:103D9000390B24303105D8F58A819B816115710575
:103DA00089F1FB0193838283FE0111C0408151811F
:103DB0000281138148175907E0F04817590799F411
:103DC000109761F012960C93129713961C933296EB
:103DD000CF01DF91CF911F910F9108950093890436
:103DE00010938A04F4CF2115310551F0421753077F
:103DF00038F0A901DB019A01BD01DF01F801C1CF53
:103E0000EF01F9CF90938A0480938904CDCFFE010E
:103E1000E20FF31F81939193225031093983288354
:103E2000D7CF2091870430918804232B41F420912F
:103E3000120130911301309388042093870420915C
:103E40001001309111012115310541F42DB73EB714
:103E50004091140150911501241B350BE09187040A
:103E6000F0918804E217F307A0F42E1B3F0B2817EC
:103E7000390778F0AC014E5F5F4F2417350748F0E3
:103E80004E0F5F1F50938804409387048193919352
:103E90009FCFF0E0E0E09CCFCF93DF930097E9F075
:103EA000FC01329713821282A0918904B0918A0496
:103EB000ED0130E020E01097A1F420813181820FE4
:103EC000931F20918704309188042817390709F03F
:103ED00061C0F0938804E0938704DF91CF91089547
:103EE000EA01CE17DF07E8F54A815B819E014115A3
:103EF0005105B1F7E901FB83EA8349915991C40F58
:103F0000D51FEC17FD0761F4808191810296840F23
:103F1000951FE90199838883828193819B838A839A
:103F2000F0E0E0E012968D919C9113970097B9F51F
:103F30002D913C911197CD010296820F931F2091F4
:103F40008704309188042817390739F6309751F5DE
:103F500010928A0410928904B0938804A093870475
:103F6000BCCFD383C28340815181840F951FC81772
:103F7000D90761F44E5F5F4F88819981480F591FBF
:103F8000518340838A819B819383828321153105EC
:103F900009F0B0CFF0938A04E09389049ECFFD012D
:103FA000DC01C0CF13821282D7CF662777270C940B
:103FB0000822FC0188279927E89421912032E9F30F
:103FC000293010F02E30C8F32B3241F02D3239F465
:103FD000689404C00E946520820F911D2191205396
:103FE0002A30C0F31EF4909581959F4F08951F933A
:103FF000FC0199278827BC01E89411911032E9F35C
:10400000193010F01E30C8F31B3251F01D3249F444
:10401000689406C00E945020610F711D811D911D82
:10402000119110531A30B0F33EF49095809570952D
:1040300061957F4F8F4F9F4F1F910895FA01A19176
:10404000B081009719F41097E1F0CD01DC01CD01AA
:104050000D90002011F4C00113C0FB012191222317
:1040600019F02015D9F7F3CFFB012191201519F490
:104070001E92119606C02223C1F70D900020A1F7D1
:10408000D001FA01A193B0830895BB274A3031F4DF
:10409000992322F4BDE2909581959F4F0C94902036
:1040A000592F482F372F262F660F771F881F991FEC
:1040B000660F771F881F991F620F731F841F951F3C
:1040C000660F771F881F991F08957AE0979F902D9C
:1040D000879F802D910D11240895BB27FA01A62FEB
:1040E0006217710581059105330B30FB66F0AA2735
:1040F000660F771F881F991FAA1FA21710F0A21B17
:1041000063953850A9F7A05DAA3308F0A95DA19383
:1041100036F7B111B1931082CA010C945124BB2718
:10412000FB015527AA27880F991FAA1FA41710F073
:10413000A41B83955051B9F7A05DAA3308F0A95D7F
:10414000A193009779F7B111B1931192CB010C941F
:104150005124A9E0B0E0EFEAF0E20C94AF256A0147
:10416000F22EB02E102FFBE3AF2EA01608F41BE3A7
:104170001F5F012F27E0AE014F5F5F4F0E94582362
:10418000BC018981982F9970913009F43FC09BE25E
:10419000E1FC04C09E2D9170E0FC3AC05E2D507190
:1041A000E82FE87083FF46C084E0911101C083E0EE
:1041B000EF2DE81B8F1508F0E0E0D6018E2F20E2EE
:1041C000552351F1992329F0D6019C93C6010196FC
:1041D0006C0196012D5F3F4FE2FE24C08EE4D601B4
:1041E0008C9391E411969C93119712968C93D9011C
:1041F0008E2F90E281111BC0E20FF32FF11D108270
:104200008EEF9FEF2996ECE00C94CB259DE2C6CF74
:1042100090E2C4CF2D9381508111FCCFCE0ED11CE2
:10422000E0E0D0CF8EE6D6018C9391E6DBCF9D9374
:104230008150E0CF482F447082FF3DC084E091114F
:1042400001C083E08F1510F4EF2DE81BD6018E2FEF
:1042500020E2552309F1992329F0D6019C93C60148
:1042600001966C0196012D5F3F4FE2FE1BC089E471
:10427000D6018C938EE411968C93119786E4129656
:104280008C93D9018E2F90E2882309F4B5CF9D93AA
:104290008150FACF2D9381508111FCCFCE0ED11CCD
:1042A000E0E0D9CF89E6D6018C938EE611968C9307
:1042B000119786E6E4CF9B0177FF02C030E020E053
:1042C000A1E0B0E0911102C0B0E0A0E0F9013196A8
:1042D000AE0FBF1F8B2C912CBB2009F461C0540181
:1042E000EFEFAE1ABE0AAA0DBB1DFA161B0619F097
:1042F00014F04F2D4A1B511188C0E3FC59C07601C0
:10430000A42FB0E2A1114FC0C40ED11C992309F40F
:104310005BC040E0D6011196F60190836D015523F4
:1043200009F448C0012F060F9A81582F507184FF5D
:1043300003C0913309F4015010160CF047C0093046
:1043400008F008E0EEE2FE2E5B01A01AB10885013C
:104350009194819491082F3F320729F4D601FC9261
:10436000F60131966F016217730794F10217130774
:104370007CF5DB01A21BB30BAA24A394B12CAC0ED9
:10438000BD1EAA0DBB1D11968C9121503109D6017D
:10439000119628153905F4F0F60180836D01DBCF05
:1043A000B12CA12CA0CFF701B1937F01A150AACFCE
:1043B0009111B0CFD601942F50E302C05D9391507C
:1043C0009111FCCFC40ED11C40E0ACCF01E0BACFBC
:1043D00080E3DBCF6217730731F4963388F49533AB
:1043E00011F4552369F0F6018083FD01842F90E2DA
:1043F000811108C0A40FB11D1C9290E080E002CF93
:1044000081E3F1CF91938150F3CF911183CF8ACF84
:10441000B0E0A0E0EEE0F2E20C94AF255C017B019D
:104420006115710519F0DB018D939C9385010F5F78
:104430001F4FF501D0818D2F90E00E9430246C0138
:10444000892BB9F5DD32B9F50F5F1F4FD5011196F4
:10445000DC91C1E05801F1E0AF1AB10843E050E04F
:1044600060E770E0C5010E943924892B69F5680175
:1044700082E0C80ED11C45E050E06BE670E0C6015A
:104480000E943924892B21F4680197E0C90ED11CC0
:10449000E114F10419F0D701CD92DC9260E070E0F4
:1044A00080E89FEFC111FFC060E070E080E89FE707
:1044B000FAC05801BBCFDB3229F485010E5F1F4FD4
:1044C000F501D181C0E0C6CF43E050E068E670E07E
:1044D000C5010E943924892BE9F0F80110E000E0C1
:1044E00020E030E0A9015F01B0ED8B2E8D0E89E058
:1044F0008815C8F19C2E689491F88C2F8870C2FFA3
:1045000016C0811102C00F5F1F4F3196D501DC919B
:10451000C92DE9CFE114F10429F00E5F1F4FF70117
:104520001183008360E070E080EC9FE7BCC08823CB
:1045300011F001501109A5E0B0E00E949E259B01F9
:10454000AC01220F331F441F551F280D311D411D83
:10455000511D283999E93907490799E15907A8F206
:10456000C6609C2ED2CFAEEF8A1206C0C3FD3CC0FF
:104570009C2E689493F8C9CFDF7DD534A9F580814E
:104580008D3239F4C061DF011296818162E070E002
:1045900006C0DF018B32C1F3119661E070E08053F9
:1045A0005D01A61AB70A8A30F8F4E0E8CE16ECE00E
:1045B000DE065CF4B601660F771F660F771FC60E26
:1045C000D71ECC0CDD1CC80ED11C5D01FFEFAF1A4D
:1045D000BF0A8C9180538A30A8F1C4FF03C0D194E4
:1045E000C194D1080C0D1D1DC1FF09C0E114F104D7
:1045F00031F081E0A81AB108D701AD92BC92CA018E
:10460000B9010E946624C370C33009F490584B016D
:104610005C0120E030E0A9010E946124882309F4B4
:1046200040C0CFE9D0E017FF05C0119501951109F1
:10463000C7E8D0E06E01B8E1CB1AD10880E2E82EDD
:10464000F12C0FC0D501B1CFFE01259135914591D7
:1046500054910E191F09C501B4010E94C7244B01D2
:104660005C01D501C4010E151F0574F72497F5945C
:10467000E794CC16DD06A9F78A2F880F8B2F881FA9
:104680008F3F49F020E030E0A901C501B4010E944C
:104690006124811106C082E290E090938C048093A3
:1046A0008B04C501B401CDB7DEB7ECE00C94CB258B
:1046B000283008F027E03327DA01990F311D87FDF4
:1046C000916000966105710539F432602E5F3D936B
:1046D00030E32A95E1F708959F3F30F08038710567
:1046E000610509F03C5F3C5F3D93913008F08068C4
:1046F000911DDF93CF931F930F93FF92EF92192F8A
:10470000987F9695E92F96959695E90FFF27E350A8
:10471000FF4F99273327EE24FF24A701E7010590D7
:104720000894079428F4360FE71EF81E491F511D00
:10473000660F771F881F991F0694A1F705900794AD
:1047400028F4E70EF81E491F561FC11D770F881F5A
:10475000991F661F0694A1F70590079428F4F80E98
:10476000491F561FC71FD11D880F991F661F771F2E
:104770000694A1F70590079420F4490F561FC71F10
:10478000D81F990F661F771F881F0694A9F7849179
:104790001095177041F0D695C79557954795F794A2
:1047A000E7941A95C1F7E3EAF0E068941590159143
:1047B00035916591959105907FE27395E118F10A25
:1047C000430B560BC90BD009C0F7E10CF11E431F78
:1047D000561FC91FD01D7EF4703311F48A95E6CFA1
:1047E000E894015030F0080F0AF40027021708F48B
:1047F000202F2395022F7A3328F079E37D932A9591
:10480000E9F710C07D932A9589F6069497956795E8
:10481000379517951794E118F10A430B560BC90BFE
:10482000D00998F023957E9173957A3308F070E360
:104830007C932013B8F77E9170617D9330F083955F
:1048400071E37D9370E32A95E1F71124EF90FF90D7
:104850000F911F91CF91DF91992787FD9095089532
:1048600091110C943425803219F089508550C8F785
:104870000895FB01DC014150504088F08D91813456
:104880001CF08B350CF4805E659161341CF06B3547
:104890000CF4605E861B611171F3990B0895881BFF
:1048A000FCCFDC01FC01672F71917723E1F7329790
:1048B00004C07C916D9370836291AE17BF07C8F3FB
:1048C00008950E94A32408F481E00895E89409C0A3
:1048D00097FB3EF490958095709561957F4F8F4F33
:1048E0009F4F9923A9F0F92F96E9BB279395F69549
:1048F000879577956795B795F111F8CFFAF4BB0FC7
:1049000011F460FF1BC06F5F7F4F8F4F9F4F16C02A
:10491000882311F096E911C0772321F09EE8872FB4
:10492000762F05C0662371F096E8862F70E060E070
:104930002AF09A95660F771F881FDAF7880F9695E9
:10494000879597F90895990F0008550FAA0BE0E88D
:10495000FEEF16161706E807F907C0F01216130641
:10496000E407F50798F0621B730B840B950B39F481
:104970000A2661F0232B242B252B21F408950A26E7
:1049800009F4A140A6958FEF811D811D08950E9415
:10499000DA240C944E250E94402538F00E944725C9
:1049A00020F0952311F00C9437250C943D2511240B
:1049B0000C9482250E945F2570F3959FC1F3950F9B
:1049C00050E0551F629FF001729FBB27F00DB11D93
:1049D000639FAA27F00DB11DAA1F649F6627B00D23
:1049E000A11D661F829F2227B00DA11D621F739F0C
:1049F000B00DA11D621F839FA00D611D221F749F1A
:104A00003327A00D611D231F849F600D211D822F60
:104A1000762F6A2F11249F5750409AF0F1F0882387
:104A20004AF0EE0FFF1FBB1F661F771F881F9150B4
:104A30005040A9F79E3F510580F00C9437250C9407
:104A400082255F3FE4F3983ED4F38695779567958A
:104A5000B795F795E7959F5FC1F7FE2B880F911DDE
:104A60009695879597F9089599278827089597F936
:104A70009F6780E870E060E008959FEF80EC089504
:104A800000240A941616170618060906089500242D
:104A90000A9412161306140605060895092E0394A7
:104AA000000C11F4882352F0BB0F40F4BF2B11F41B
:104AB00060FF04C06F5F7F4F8F4F9F4F089557FD7A
:104AC0009058440F551F59F05F3F71F04795880F7C
:104AD00097FB991F61F09F3F79F087950895121613
:104AE00013061406551FF2CF4695F1DF08C01616BF
:104AF00017061806991FF1CF869571056105089470
:104B00000895E894BB2766277727CB0197F9089586
:104B1000F999FECF92BD81BDF89A992780B5089585
:104B2000262FF999FECF1FBA92BD81BD20BD0FB6C9
:104B3000F894FA9AF99A0FBE019608950E94E0251A
:104B4000A59F900DB49F900DA49F800D911D1124E1
:104B500008952F923F924F925F926F927F928F9221
:104B60009F92AF92BF92CF92DF92EF92FF920F93FC
:104B70001F93CF93DF93CDB7DEB7CA1BDB0B0FB606
:104B8000F894DEBF0FBECDBF09942A8839884888C3
:104B90005F846E847D848C849B84AA84B984C88459
:104BA000DF80EE80FD800C811B81AA81B981CE0F50
:104BB000D11D0FB6F894DEBF0FBECDBFED01089535
:104BC000A29FB001B39FC001A39F700D811D11244E
:104BD000911DB29F700D811D1124911D0895505893
:104BE000BB27AA270E9407260C944E250E94402529
:104BF00038F00E94472520F039F49F3F19F426F43D
:104C00000C943D250EF4E095E7FB0C943725E92F35
:104C10000E945F2558F3BA17620773078407950748
:104C200020F079F4A6F50C9481250EF4E0950B2E76
:104C3000BA2FA02D0B01B90190010C01CA01A001EE
:104C40001124FF27591B99F0593F50F4503E68F149
:104C50001A16F040A22F232F342F4427585FF3CF8A
:104C6000469537952795A795F0405395C9F77EF45B
:104C70001F16BA0B620B730B840BBAF09150A1F0A4
:104C8000FF0FBB1F661F771F881FC2F70EC0BA0F2A
:104C9000621F731F841F48F4879577956795B795B2
:104CA000F7959E3F08F0B0CF9395880F08F09927AD
:104CB000EE0F9795879508950E9470260C944E25C7
:104CC0000E94472558F00E94402540F029F45F3F9C
:104CD00029F00C94372551110C9482250C943D2514
:104CE0000E945F2568F39923B1F3552391F3951B37
:104CF000550BBB27AA2762177307840738F09F5FFD
:104D00005F4F220F331F441FAA1FA9F335D00E2E69
:104D10003AF0E0E832D091505040E695001CCAF7D6
:104D20002BD0FE2F29D0660F771F881FBB1F261799
:104D300037074807AB07B0E809F0BB0B802DBF0170
:104D4000FF2793585F4F3AF09E3F510578F00C943F
:104D500037250C9482255F3FE4F3983ED4F3869583
:104D600077956795B795F7959F5FC9F7880F911D60
:104D70009695879597F90895E1E0660F771F881F4C
:104D8000BB1F621773078407BA0720F0621B730BFF
:104D9000840BBA0BEE1F88F7E09508950E94D52684
:104DA0006894B1110C94822508950E94672588F0BB
:104DB0009F5798F0B92F9927B751B0F0E1F0660FDF
:104DC000771F881F991F1AF0BA95C9F714C0B13020
:104DD00091F00E948125B1E008950C948125672F00
:104DE000782F8827B85F39F0B93FCCF3869577954F
:104DF0006795B395D9F73EF4909580957095619538
:104E00007F4F8F4F9F4F08950E94A32408F48FEF88
:104E10000895AA1BBB1B51E107C0AA1FBB1FA61701
:104E2000B70710F0A61BB70B881F991F5A95A9F753
:104E300080959095BC01CD010895A1E21A2EAA1B80
:104E4000BB1BFD010DC0AA1FBB1FEE1FFF1FA2173A
:104E5000B307E407F50720F0A21BB30BE40BF50B37
:104E6000661F771F881F991F1A9469F760957095C0
:104E7000809590959B01AC01BD01CF010895EE0F87
:104E8000FF1F0590F491E02D0994B0E0A0E0EBE461
:104E9000F7E20C94AB258C01009751F4CB010E94F2
:104EA000B01E8C01C801CDB7DEB7E0E10C94C72578
:104EB000FC01E60FF71F9C0122503109E217F307AE
:104EC00008F49DC0D901CD91DC911197C617D70781
:104ED00098F0C530D10530F3CE01049786179707B7
:104EE00008F3C61BD70B2297C193D1936D937C9384
:104EF000CF010E944C1FD6CF5B01AC1ABD0A4C01FA
:104F00008C0E9D1EA0918904B0918A04512C412CD5
:104F1000F12CE12C109731F5809187049091880451
:104F20008815990509F05CC04616570608F058C068
:104F30008091100190911101009741F48DB79EB7B7
:104F40004091140150911501841B950BE817F90746
:104F500008F055C0F0938804E0938704F901718349
:104F60006083A0CF8D919C91119712966C901297AF
:104F700013967C901397A815B90559F56C0142E07A
:104F8000C40ED11CCA14DB0420F1AC014A195B0920
:104F9000DA011296159780F0628273825183408302
:104FA000D9016D937C93E114F10471F0D70113964C
:104FB000FC93EE93129776CF22968C0F9D1FF901EA
:104FC00091838083F301EFCFF0938A04E093890407
:104FD00069CF4816590608F42C017D01D3019ACFF8
:104FE000CB010E94B01E7C01009749F0AE01B801D0
:104FF0000E940B28C8010E944C1F870153CF10E06C
:1050000000E050CF803209F091110C943425805289
:105010008F55D8F70895FB01DC0102C001900D9275
:1050200041505040D8F70895FB01DC0101900D92EA
:105030000020E1F70895FB01DC014150504030F0C1
:105040008D910190801919F40020B9F7881B990BF4
:10505000089510E0CDEFD0E004C0FE010E943F278C
:0C5060002196CE3FD107C9F7F894FFCF8E
:10506C002D042D040AD7233C3333333F0AD7233C7A
:10507C0000008D04800000000100080020004000AA
:10508C0080000001000400000000BD0204024A027E
:10509C000A037B0259026D020D0A0049735F696EA7
:1050AC005F4172656120726561636865643A2000D6
:1050BC0031202D20004164616C696E654F6E3B00A0
:1050CC007B22506F776572223A2200222C22677065
:1050DC00696F223A2200227D006572723B506F7715
:1050EC00657220636F6E73756D7074696F6E206579
:1050FC0072726F72202D20626174746572795F69AF
:10510C003A0053544154455F464F52574152442044
:10511C00646F6E653A200053544154455F524F4CB6
:10512C004C20646F6E653A2000763B0073706565A9
:10513C00640073706565643B004172506F776572F3
:10514C00004172506F7765723B004164616C696E0F
:10515C00654F6E00426C6164654F6E00426C616419
:10516C00654F6E3B00706964007069642000727555
:10517C006E00666300436F6D6D616E64206E6F74BC
:10518C0020666F756E643A2000436F6D6D616E64BE
:10519C0020746F6F206C617267653A2000766572BF
:0851AC003B007665723A000039
:00000001FF
