:100000000C940D010C9435010C9435010C943501C0
:100010000C9435010C9435010C9435010C94350188
:100020000C9435010C9435010C9435010C94350178
:100030000C9435010C9435010C9435010C94350168
:100040000C94BC090C9435010C948A090C94640935
:100050000C9435010C9435010C9435010C94350148
:100060000C9435010C9435014E414E494E4954597A
:10007000494E46CDCCCC3D0AD7233C17B7D1387773
:10008000CC2B329595E6241FB14F0A000020410089
:1000900000C84200401C4620BCBE4CCA1B0E5AAED3
:1000A000C59D7400407A10F35A00A0724E180900E2
:1000B00010A5D4E80000E87648170000E40B5402CD
:1000C0000000CA9A3B000000E1F505000080969808
:1000D00000000040420F000000A086010000001058
:1000E0002700000000E8030000000064000000009A
:1000F000000A00000000000100000000002C76D87B
:1001000088DC674F0823DFC1DFAE59E1B1B796E560
:10011000E3E453C63AE651997696E8E6C28426EBC4
:10012000898C9B62ED407C6FFCEFBC9C9F40F2BAD7
:10013000A56FA5F490055A2AF75C936B6CF9676D6F
:10014000C11BFCE0E40D47FEF520E6B500D0ED90C4
:100150002E0300943577050080841E080000204E91
:100160000A000000C80C333333330F986E1283112A
:1001700041EF8D2114893BE65516CFFEE6DB18D101
:10018000844B381BF77C1D901DA4BBE424203284D3
:10019000725E228100C9F124ECA1E53D27253034AF
:1001A000642D253032642D2530326454253032647C
:1001B0003A253032643A25303264000000000023D2
:1001C00000260029000000000800020100000304CE
:1001D00007000000000000000000000000250028CB
:1001E000002B0000000000240027002A0004040463
:1001F00004040404040202020202020303030303D0
:1002000003010204081020408001020408102001AC
:10021000020408102000060A291411241FBECFEF83
:10022000D8E0DEBFCDBF23E0A0ECB1E001C01D925D
:10023000A536B207E1F711E0A0E0B1E0E2E6F1E4B3
:1002400002C005900D92A03CB107D9F711E0CCE0B7
:10025000D1E004C02197FE010E94951ECB30D1074A
:10026000C9F70E94480A0C94A4200C940000CF9374
:10027000DF9390E0FC01EF5FFD4F249183519E4F8F
:10028000FC0184918823C1F090E0880F991FFC0144
:10029000ED51FE4FC591D491FC01E752FE4FA5915F
:1002A000B4919FB7F8943881822F809583238883F7
:1002B000EC91E22BEC939FBFDF91CF910895AF9229
:1002C000BF92CF92DF92EF92FF920F931F93CF9343
:1002D000DF936C017B018B01040F151FEB015E01A5
:1002E000AE18BF08C017D10759F06991D601ED913A
:1002F000FC910190F081E02DC6010995892B79F7D9
:10030000C501DF91CF911F910F91FF90EF90DF908A
:10031000CF90BF90AF900895CF93DF93FC014481BD
:1003200055816081718185EB92E00E945F01EC0153
:1003300042E050E068E271E085EB92E00E945F01EC
:100340008C0F9D1FDF91CF910895FC01538D448D3B
:10035000252F30E0842F90E0821B930B541710F070
:10036000CF96089501970895FC01918D828D98177D
:1003700061F0A28DAE0FBF2FB11D5D968C91928D55
:100380009F5F9F73928F90E008958FEF9FEF089586
:10039000FC01918D828D981731F0828DE80FF11D4F
:1003A000858D90E008958FEF9FEF0895FC01918D6A
:1003B000228D892F90E0805C9F4F821B91098F7363
:1003C0009927089585EB92E00E94D60121E0892BC0
:1003D00009F420E0822F089580E090E0892B29F035
:1003E0000E94E20181110C9400000895FC01A48D8B
:1003F000A80FB92FB11DA35ABF4F2C91848D90E047
:1004000001968F739927848FA689B7892C93A08929
:10041000B1898C91837080648C93938D848D9813B3
:1004200006C00288F389E02D80818F7D8083089546
:10043000EF92FF920F931F93CF93DF93EC0181E034
:10044000888F9B8D8C8D98131AC0E889F9898081DB
:1004500085FF15C09FB7F894EE89FF896083E8890E
:10046000F98980818370806480839FBF81E090E000
:10047000DF91CF911F910F91FF90EF900895F62E8D
:100480000B8D10E00F5F1F4F0F731127E02E8C8D27
:100490008E110CC00FB607FCFACFE889F98980816C
:1004A00085FFF5CFCE010E94F601F1CFEB8DEC0F69
:1004B000FD2FF11DE35AFF4FF0829FB7F8940B8F89
:1004C000EA89FB8980818062CFCFCF93DF93EC01F3
:1004D000888D8823B9F0AA89BB89E889F9898C912C
:1004E00085FD03C0808186FD0DC00FB607FCF7CFE8
:1004F0008C9185FFF2CF808185FFEDCFCE010E94E8
:10050000F601E9CFDF91CF91089590E0FC01EB5324
:10051000FE4F2491FC01EF5FFD4F3491FC01E3514C
:10052000FE4FE491EE23C1F1222339F02330E9F0AC
:1005300090F4213001F1223011F1F0E0EE0FFF1FB5
:10054000E554FE4FA591B491EC91E32381E090E056
:1005500029F580E008952730A9F02830C9F024302B
:1005600061F7809180008F7D03C0809180008F773C
:1005700080938000E2CF84B58F7784BDDECF84B5D1
:100580008F7DFBCF8091B0008F778093B000D5CF67
:100590008091B0008F7DF9CF80E090E008958E309B
:1005A00008F08E508770806480937C0080917A0080
:1005B000806480937A0080917A0086FDFCCF8091E0
:1005C00078009091790008953FB7F8948091D70111
:1005D0009091D801A091D901B091DA0126B5A89BDC
:1005E00005C02F3F19F00196A11DB11D3FBFBA2FC5
:1005F000A92F982F8827BC01CD01620F711D811D85
:10060000911D42E0660F771F881F991F4A95D1F709
:1006100008952FB7F8946091D3017091D40180911F
:10062000D5019091D6012FBF08956093CE017093AC
:10063000CF018093D0019093D101645D7E4F8F4FA5
:100640009F4F6093CA017093CB018093CC0190932C
:10065000CD0182E090E09093C9018093C8010E948F
:1006600009036093C4017093C5018093C601909300
:10067000C7010895CF92DF92EF92FF920F931F93DD
:100680000E9409038B019C01C090C401D090C50158
:10069000E090C601F090C7016091CE017091CF014A
:1006A0008091D0019091D1010C191D092E093F09AB
:1006B000083E134021053105E0F0DC01CB01019635
:1006C000A11DB11D8093CE019093CF01A093D001C5
:1006D000B093D101B701A60148515C4F6F4F7F4FD6
:1006E0004093C4015093C5016093C6017093C70144
:1006F000C7CF1F910F91FF90EF90DF90CF9008959B
:100700004F925F926F927F928F929F92AF92BF9221
:10071000CF92DF92EF92FF920F931F93CF93DF93CD
:100720004B015C018091C0019091C101A091C20177
:10073000B091C30188159905AA05BB0509F4C6C087
:100740008CE3C82ED12CE12CF12CC501A701960118
:100750000E94641E6093E301CA01B901A7019601DA
:100760000E94641E6093E401C501B40120E13EE0F3
:1007700040E050E00E94641ECA01B90128E130E067
:1007800040E050E00E94641E6093E501C501B401A1
:1007900020E831E541E050E00E94641E69017A01E1
:1007A000CA01B9016C5F7F4F8F4F9F4F27E030E048
:1007B00040E050E00E94641E6F5F6093E601412CB0
:1007C000512C320140E004E610E0C0E9D1E0242FD2
:1007D00030E02E54384FF901E370FF273097F9F4D9
:1007E000C901B8010E94501E892B31F4C901BE0114
:1007F0000E94501E892B99F48EE691E0A0E0B0E0B3
:10080000480E591E6A1E7B1ED301C201AA27BB27B0
:10081000C816D906EA06FB0638F04F5FD8CF8DE63A
:1008200091E0A0E0B0E0ECCF4093E901C90164E6BB
:1008300070E00E94501EEC01C90160E971E00E9465
:10084000501E309721F42097D9F40097C9F04DE657
:1008500051E060E070E0441A550A660A770AC4184D
:10086000D508E608F708AAE0B1E020E0213069F4F5
:100870003097E9F5209711F40097C9F54DE106C0CE
:100880004EE651E060E070E0E6CF4C9150E070E061
:1008900060E031E0320FC416D506E606F70640F0F8
:1008A000C41AD50AE60AF70A1196232F3C30F1F64E
:1008B0002F5F2093E801C394C092E7018092C001AA
:1008C0009092C101A092C201B092C301DF91CF9179
:1008D0001F910F91FF90EF90DF90CF90BF90AF905E
:1008E0009F908F907F906F905F904F9008954CE114
:1008F000CDCFCF92DF92EF92FF920F931F936B01B8
:100900007C010E9409038B019C010C151D052E051D
:100910003F0568F06C197D098E099F0997FF18C083
:10092000C901B8016C197D098E099F0911C0D70151
:10093000C601801B910BA20BB30BB7FDF1CF9C013D
:10094000AD0166277727CB01621B730B840B950BD8
:100950001F910F91FF90EF90DF90CF9008958F92AD
:100960009F92AF92BF92CF92DF92EF92FF92CF937E
:10097000DF93EC016A017B01222381F18881998157
:10098000AA81BB818C0D9D1DAE1DBF1D88839983DF
:10099000AA83BB83688179818A819B810E947904C3
:1009A0004B015C01B7FC0FC0C814D904EA04FB0476
:1009B00000F50E940903C60ED71EE81EF91EC88264
:1009C000D982EA82FB82DF91CF91FF90EF90DF9096
:1009D000CF90BF90AF909F908F9008950E94090391
:1009E0006C0D7D1D8E1D9F1D688379838A839B837B
:1009F000D1CF0E940903C818D908EA08FB08DBCF49
:100A0000CF93DF93EC01688179818A819B816115A5
:100A100071058105910521F480E0DF91CF91089562
:100A20000E94790497FDF8CF188219821A821B82DE
:100A300081E0F3CF8F929F92AF92BF92CF92DF92DD
:100A4000EF92FF920E943A036B017C01C092600218
:100A5000D0926102E0926202F09263020E94090366
:100A60006093320270933302809334029093350284
:100A70008CE3882E912CA12CB12CC701B601A501C5
:100A800094010E94641E60935A02CA01B901A50133
:100A900094010E94641E60933B02C701B60120E8E6
:100AA00031E541E050E00E94641E20E13EE040E07C
:100AB00050E00E94641E20933602FF90EF90DF907A
:100AC000CF90BF90AF909F908F900895CF93DF937A
:100AD0008AE190E00E948A1CC1EBD2E088838BE11E
:100AE00090E00E948A1C89838CE190E00E948A1C1D
:100AF0008A838DE190E00E948A1C8B83CE01DF9176
:100B0000CF9108950F931F93CF93DF938C01EB0147
:100B10000E948A1C8883C80101960E948A1C8983CE
:100B2000CE01DF91CF911F910F910895CF92DF9267
:100B3000EF92FF920F931F93CF93DF93EB017B0113
:100B400024E0E20EF11C8B016C01C61AD70AC60123
:100B5000800F911F0E948A1CF80181938F01EE156E
:100B6000FF05A9F7CE01DF91CF911F910F91FF9063
:100B7000EF90DF90CF9008950F931F93CF93DF9363
:100B8000EC0188819981009759F02A813B812617D1
:100B9000370730F081E0DF91CF911F910F910895D9
:100BA0008B016F5F7F4F0E94C01F009759F09983A0
:100BB00088831B830A832C813D81232B59F7FC01F9
:100BC0001082E8CF80E0E7CFEF92FF920F931F9360
:100BD000CF93DF936115710541F480E0DF91CF91F0
:100BE0001F910F91FF90EF90089541155105B1F0BD
:100BF0007B01EC010C811D81040F151FB8010E94BF
:100C0000BC05882351F3288139818C819D81B701EE
:100C1000820F931F0E948F201D830C8381E0DECF03
:100C2000CF93DF93EC0188819981009711F00E94A6
:100C3000371F198218821D821C821B821A82DF9143
:100C4000CF910895CF93DF93EC01FB010190002039
:100C5000E9F73197AF01461B570B0E94E40581115C
:100C600003C0CE010E941006CE01DF91CF910895FE
:100C7000CF93DF93EC01FB01448155816081718149
:100C80000E94E405811103C0CE010E941006CE012E
:100C9000DF91CF910895EF92FF920F931F93CF931F
:100CA000DF93EC017B018A01BA010E94BC0581112E
:100CB0000BC0CE010E941006CE01DF91CF911F9193
:100CC0000F91FF90EF9008951D830C83B7018881E9
:100CD00099810E948F20F0CFFB0101900020E9F75D
:100CE0003197AF01461B570B0C944B060F931F9384
:100CF000CF93DF93CDB7DEB762970FB6F894DEBF20
:100D00000FBECDBF8C01CB01F8011182108213827E
:100D10001282158214824AE0BE016F5F7F4F0E94EB
:100D2000BB14BE016F5F7F4FC8010E946C066296C4
:100D30000FB6F894DEBF0FBECDBFDF91CF911F91EC
:100D40000F910895EF92FF920F931F93CF93DF932C
:100D5000CDB7DEB7A1970FB6F894DEBF0FBECDBFFB
:100D60007C01CB01BA01F701118210821382128239
:100D7000158214828E010F5F1F4F22E044E00E9413
:100D80002D14009789F0BC01C7010E946C06A19642
:100D90000FB6F894DEBF0FBECDBFDF91CF911F918C
:100DA0000F91FF90EF900895C7010E941006EFCFBA
:100DB0000F931F93CF93DF93CDB7DEB729970FB66D
:100DC000F894DEBF0FBECDBF8C01862FF8011182D3
:100DD000108213821282158214824AE0BE016F5F74
:100DE0007F4F90E00E94E314BE016F5F7F4FC80108
:100DF0000E946C0629960FB6F894DEBF0FBECDBFD9
:100E0000DF91CF911F910F910895FB01DC011196A5
:100E10001C921E9213961C921E92129715961C926B
:100E20001E9214978617970749F0608171816115AA
:100E3000710521F0448155810C944B060895FC0105
:100E4000118210821382128215821482611571053B
:100E500051F0FB0101900020E9F73197AF01461BEB
:100E6000570B0C944B060895FC01808191810097EB
:100E700011F00C94371F0895CF93DF93CDB7DEB7F1
:100E800067970FB6F894DEBF0FBECDBFFC0124817B
:100E9000358120343105C0F11B8A1A8A1D8A1C8ACB
:100EA0001F8A1E8A4AE0BE016F5F7F4FC9010E9400
:100EB000E314BE016F5F7F4FCE0142960E946C0625
:100EC0006BE271E0CE0101960E941F07BE016E5ECB
:100ED0007F4FCE0101960E9438066EE371E00E94BA
:100EE00022060E948C01CE0101960E943407CE0199
:100EF00042960E94340767960FB6F894DEBF0FBE85
:100F0000CDBFDF91CF9108950E948C01F4CFCF9394
:100F1000DF93CDB7DEB7AA970FB6F894DEBF0FBE4A
:100F2000CDBF40913D0250913E0260913F027091D1
:100F30004002CE014F960E94A2064091410250917C
:100F400042026091430270914402CE0149960E9490
:100F5000A20640914502509146026091470270916D
:100F60004802CE0143960E94A20640914902509148
:100F70004A0260914B0270914C02CE010D960E9484
:100F8000A20640915C0250915D0260915E027091F8
:100F90005F02CE0107960E94A20660E471E0CE01D6
:100FA00001960E941F07BE01695F7F4FCE01019627
:100FB0000E94380669E471E00E942206BE01635F68
:100FC0007F4F0E94380669E471E00E942206BE014C
:100FD0006D5E7F4F0E94380669E471E00E94220630
:100FE000BE01675E7F4F0E94380669E471E00E948F
:100FF0002206BE01615E7F4F0E943806BC01CE0111
:1010000085960E940507CE0185960E943C07CE0179
:1010100085960E943407CE0101960E943407CE01C6
:1010200007960E943407CE010D960E943407CE0128
:1010300043960E943407CE0149960E943407CE01A0
:101040004F960E943407AA960FB6F894DEBF0FBEE3
:10105000CDBFDF91CF910895FF920F931F93CF9350
:10106000DF93EC018B01FB01F0800E948A1CF816D3
:1010700021F06F2DCE010E94921CF801F180219683
:10108000CE010E948A1CF81621F06F2DCE010E941D
:10109000921CC801DF91CF911F910F91FF9008958D
:1010A0009F92AF92BF92CF92DF92EF92FF920F93F7
:1010B0001F93CF93DF935C017B018B01D0E0C0E0F5
:1010C000F80191908F016501CC0EDD1EC6010E94D2
:1010D0008A1C981621F0692DC6010E94921C219647
:1010E000C430D10569F7C701DF91CF911F910F91EE
:1010F000FF90EF90DF90CF90BF90AF909F900895BA
:101100007F928F929F92AF92BF92CF92DF92EF9297
:10111000FF920F931F93CF93DF93CDB7DEB7E9977D
:101120000FB6F894DEBF0FBECDBF60910001709185
:101130000101CE018E960E947606609102017091A7
:101140000301CE0188960E947606C0906002D0907E
:101150006102E0906202F0906302C701B6010E9452
:10116000800303EE11E0F8017080C701B6010E9410
:101170008003F8018180C701B6010E948003F80155
:101180009280C701B6010E948003F801A480C701C4
:10119000B6010E948003F801B580C701B6010E9424
:1011A00080031F927F921F928F921F929F921F9295
:1011B000AF921F92BF92F801868190E08E54984FB3
:1011C0009F938F938DE991E09F938F931F9285E179
:1011D0008F938E010F5F1F4F1F930F930E94FD147B
:1011E000B801CE014C960E941F076C8D7D8DCE01FB
:1011F00082960E941F0761E070E0CE0146960E9431
:10120000760665E471E0C8010E941F07BE016A5EB0
:101210007F4FC8010E94380669E471E00E942206EF
:10122000BE016E5D7F4F0E94380669E471E00E9446
:101230002206BE01685D7F4F0E94380669E471E0B6
:101240000E942206BE01625D7F4F0E943806BC01EB
:10125000CE01C4960E940507CE01C4960E943C07A9
:10126000CE01C4960E943407C8010E943407CE0103
:1012700046960E943407CE0182960E943407CE0122
:101280004C960E943407CE0188960E943407CE0106
:101290008E960E9434070FB6F894DEBF0FBECDBF06
:1012A000E9960FB6F894DEBF0FBECDBFDF91CF91A8
:1012B0001F910F91FF90EF90DF90CF90BF90AF9074
:1012C0009F908F907F9008951F920F920FB60F926C
:1012D00011242F933F934F935F936F937F938F933B
:1012E0009F93AF93BF93EF93FF9385EB92E00E94A0
:1012F000F601FF91EF91BF91AF919F918F917F91F7
:101300006F915F914F913F912F910F900FBE0F9072
:101310001F9018951F920F920FB60F9211242F93C2
:101320008F939F93EF93FF93E091C502F091C602D4
:101330008081E091CB02F091CC0282FD1BC09081B4
:101340008091CE028F5F8F732091CF02821741F080
:10135000E091CE02F0E0EB54FD4F958F8093CE02EA
:10136000FF91EF919F918F912F910F900FBE0F9052
:101370001F9018958081F4CF1F920F920FB60F9295
:1013800011242F933F938F939F93AF93BF9380919B
:10139000D3019091D401A091D501B091D6013091A3
:1013A000D20123E0230F2D3758F50196A11DB11D61
:1013B0002093D2018093D3019093D401A093D501BF
:1013C000B093D6018091D7019091D801A091D90115
:1013D000B091DA010196A11DB11D8093D7019093C0
:1013E000D801A093D901B093DA01BF91AF919F9139
:1013F0008F913F912F910F900FBE0F901F901895D6
:1014000026E8230F0296A11DB11DD2CFE5EBF2E035
:101410001382128288EE93E0A0E0B0E0848395838B
:10142000A683B7838AE191E09183808385EC90E085
:101430009587848784EC90E09787868780EC90E09E
:10144000918B808B81EC90E0938B828B82EC90E08F
:10145000958B848B86EC90E0978B868B118E128E09
:10146000138E148EE8E5F3E080E092E091838083B0
:1014700080E186838DEC9CECACECBDE382839383AE
:10148000A483B5836AE271E082E593E00C941F07C0
:10149000CF93DF93CDB7DEB7A4970FB6F894DEBF36
:1014A0000FBECDBF789484B5826084BD84B5816061
:1014B00084BD85B5826085BD85B5816085BD80911F
:1014C0006E00816080936E00109281008091810097
:1014D000826080938100809181008160809381008F
:1014E000809180008160809380008091B100846051
:1014F0008093B1008091B00081608093B0008091B2
:101500007A00846080937A0080917A008260809370
:101510007A0080917A00816080937A0080917A00CD
:10152000806880937A001092C1008EE00E9437019B
:101530008FE00E9437018CE00E9437018BE00E940F
:1015400037018AE00E943701E091C502F091C6029E
:1015500082E08083E091C102F091C2021082E091AA
:10156000C302F091C40280E180831092CD02E09129
:10157000C902F091CA0286E08083E091C702F0912F
:10158000C802808180618083E091C702F091C80227
:10159000808188608083E091C702F091C8028081D9
:1015A00080688083E091C702F091C80280818F7DBE
:1015B00080831092ED011092EA0161E070E0CE01AB
:1015C00007960E9476066BE471E0CE010D960E94AC
:1015D0001F07BE01695F7F4FCE010D960E9438063E
:1015E000BC01CE0101960E940507CE0101960E9422
:1015F0003C07CE0101960E943407CE010D960E9451
:101600003407CE0107960E9434070E94660562E007
:1016100071E090E080E00E94820560E071E082E08D
:1016200090E00E94820569E472E08AE090E00E9406
:10163000960565E472E08EE090E00E94960561E414
:1016400072E082E190E00E9496056DE372E086E12F
:1016500090E00E9496058091B1029091B202A09113
:10166000B302B091B4028F3F9F4FAF4FBF4F69F4A9
:101670008CE291E09A838983BE016F5F7F4F8AE19C
:1016800090E00E942C080E9466058091490290918A
:101690004A02A0914B02B0914C0280933702909382
:1016A0003802A0933902B0933A0221E044E650E0B8
:1016B00060E070E08DEA92E00E94AF0421E048E82B
:1016C00053E160E070E08FED91E00E94AF0421E013
:1016D00044E650E060E070E08BED91E00E94AF04E2
:1016E00080910001909101019093590380935803D8
:1016F0004AE0242E312C0E941A058DEA92E00E94C5
:1017000000058823F9F020E044E650E060E070E056
:101710008DEA92E00E94AF0481E892E08C010C5FB8
:101720001F4FFC014081518162817381452B462B03
:10173000472B11F00E940005C8012DEA32E0201766
:10174000310761F78CE00E94850261E0892B09F086
:1017500060E080917E0290E068171906D9F16093ED
:101760007E02CE0107960E94D80662E070E0CE01AC
:101770000D960E94760660E571E0CE0143960E94C8
:101780001F07BE01635F7F4FCE0143960E9438065C
:1017900069E471E00E942206BE01695F7F4F0E94EA
:1017A0003806BC01CE0101960E940507CE010196C4
:1017B0000E943C07CE0101960E943407CE01439659
:1017C0000E943407CE010D960E943407CE01079681
:1017D0000E9434078BE00E94850261E0892B09F0AA
:1017E00060E080917D0290E068171906D9F160935E
:1017F0007D02CE0107960E94D80661E070E0CE011E
:101800000D960E94760660E571E0CE0143960E9437
:101810001F07BE01635F7F4FCE0143960E943806CB
:1018200069E471E00E942206BE01695F7F4F0E9459
:101830003806BC01CE0101960E940507CE01019633
:101840000E943C07CE0101960E943407CE014396C8
:101850000E943407CE010D960E943407CE010796F0
:101860000E9434078AE00E94850261E0892B09F01A
:1018700060E080917C0290E068171906D9F16093CE
:101880007C02CE0107960E94D80670E060E0CE018F
:101890000D960E94760660E571E0CE0143960E94A7
:1018A0001F07BE01635F7F4FCE0143960E9438063B
:1018B00069E471E00E942206BE01695F7F4F0E94C9
:1018C0003806BC01CE0101960E940507CE010196A3
:1018D0000E943C07CE0101960E943407CE01439638
:1018E0000E943407CE010D960E943407CE01079660
:1018F0000E9434078EE00E94CF029C018091720208
:1019000090917302A0917402B091750240917A0295
:1019100050917B02473051050CF41AC110927202AB
:1019200010927302109274021092750233E0B69511
:10193000A795979587953A95D1F7883C91050CF432
:1019400002C181E090E0909365028093640260910F
:1019500064027091650280917F0286171706D9F1A3
:1019600060937F02CE0107960E94D80663E070E084
:10197000CE010D960E94760660E571E0CE01439699
:101980000E941F07BE01635F7F4FCE0143960E94F6
:10199000380669E471E00E942206BE01695F7F4F4C
:1019A0000E943806BC01CE0101960E940507CE01B7
:1019B00001960E943C07CE0101960E943407CE0199
:1019C00043960E943407CE010D960E943407CE0143
:1019D00007960E9434078FE00E94CF029C018091FD
:1019E000760290917702A0917802B09179024091AD
:1019F0007A0250917B02473051050CF4C1C010921D
:101A00007602109277021092780210927902109268
:101A10007B0210927A0223E0B695A7959795879559
:101A20002A95D1F7883C91050CF4A3C01092650269
:101A3000109264026091640270916502809180024C
:101A400086171706D9F160938002CE0107960E948F
:101A5000D80664E070E0CE010D960E94760660E53F
:101A600071E0CE0143960E941F07BE01635F7F4F66
:101A7000CE0143960E94380669E471E00E94220676
:101A8000BE01695F7F4F0E943806BC01CE010196FE
:101A90000E940507CE0101960E943C07CE010196E7
:101AA0000E943407CE0143960E943407CE010D9662
:101AB0000E943407CE0107960E94340780917A0273
:101AC00090917B02019690937B0280937A028091A1
:101AD000600290916102A0916202B0916302813B29
:101AE000944AAA42B94008F411C30E94E4022B01AF
:101AF0003C01C12CD12C7601812C912C54010E94E7
:101B0000E402641975098609970960327E448105EB
:101B1000910508F046C080915E030E94CF0220919B
:101B2000580330915903DC01A21BB30B9D010E94A5
:101B3000861E860E971EA81EB91EFFEFCF1ADF0A5B
:101B4000EF0AFF0ADCCF1092650210926402FFCE0A
:101B5000032E000C440B550B820F931FA41FB51FBF
:101B60008093720290937302A0937402B0937502F3
:101B700032CF81E090E090936502809364025ACF67
:101B8000032E000C440B550B820F931FA41FB51F8F
:101B90008093760290937702A0937802B0937902B3
:101BA0008DCFC501B401A70196010E94641ECA0130
:101BB000B9010E94681B0E94DB1D20E030EC4FE75A
:101BC00054E40E945E1D20E030E040EA50E40E94B0
:101BD000C91B20915A0330915B0340915C035091E3
:101BE0005D030E945E1D20E030E046E653E40E9463
:101BF000C91B6B017C01C0925C02D0925D02E09235
:101C00005E02F0925F026091020170910301072E63
:101C1000000C880B990B0E946A1B9B01AC01C70149
:101C2000B6010E94D01D18160CF0FCC121E02093D3
:101C30005B0280915A0290915902891709F4A6C05B
:101C400080FDA4C0609155027091560280915702A8
:101C500090915802611571058105910509F496C0AE
:101C60000E94681B9B01AC0160915102709152026D
:101C700080915302909154020E945E1D6B017C0181
:101C80000E943A0300914D0210914E0220914F02A2
:101C900030915002601B710B820B930B0E94681BEA
:101CA000A70196010E94C91B20E03AEB4BE55AE4DC
:101CB0000E945E1D6B017C01AC019B016091490299
:101CC00070914A0280914B0290914C020E94F21C4A
:101CD0006093490270934A0280934B0290934C02A6
:101CE000A7019601609145027091460280914702DA
:101CF000909148020E94F21C609345027093460244
:101D00008093470290934802A70196016091410297
:101D10007091420280914302909144020E94F21C11
:101D20006093410270934202809343029093440275
:101D3000A701960160913D0270913E0280913F02A1
:101D4000909140020E94F21C60933D0270933E020B
:101D500080933F02909340021092510210925202DF
:101D60001092530210925402109255021092560291
:101D700010925702109258020E943A0360934D024B
:101D800070934E0280934F029093500280915502BF
:101D900090915602A0915702B09158020196A11D50
:101DA000B11D8093550290935602A0935702B093B1
:101DB000580220915C0230915D0240915E02509188
:101DC0005F02609151027091520280915302909192
:101DD00054020E94F21C609351027093520280934D
:101DE0005302909354026091020170910301072EF7
:101DF000000C880B990B0E946A1B20915C023091A9
:101E00005D0240915E0250915F020E94631B20912F
:101E10005B0287FF0BC080915A029091590289178B
:101E200029F06EE10E94301E992329F080913C0236
:101E3000281709F41CC120933C020E948707809157
:101E40005A02909159028917C1F0811116C08091F0
:101E50003B028B3391F480913602873171F41092FA
:101E6000490210924A0210924B0210924C0269E40D
:101E700072E08AE090E00E94500880915A029091AE
:101E800059028917B9F1811135C080913B02811146
:101E900031C08091360281112DC060916002709135
:101EA0006102809162029091630220E831E541E095
:101EB00050E00E94641ECA01B9016C5F7F4F8F4FD2
:101EC0009F4F27E030E040E050E00E94641E613008
:101ED00071058105910571F4109245021092460238
:101EE000109247021092480265E472E08EE090E0A2
:101EF0000E94500880915A0290915902891709F462
:101F00005CC081115AC080913B02811120C0809138
:101F1000360281111CC06091600270916102809153
:101F20006202909163020E9480038091E7018130F8
:101F300071F41092410210924202109243021092E8
:101F4000440261E472E082E190E00E9450088091D6
:101F50005A0290915902891781F181112EC0809106
:101F60003B0281112AC080913602811126C0C090A7
:101F70006002D0906102E0906202F0906302C701BB
:101F8000B6010E9480038091E7018130B1F4C7015E
:101F9000B6010E9480038091E801813071F41092B3
:101FA0003D0210923E0210923F02109240026DE3F9
:101FB00072E086E190E00E94500885EB92E00E947A
:101FC000D601181619060CF010C485EB92E00E9499
:101FD000B401182F8A3019F08D3009F0C5C34BEECB
:101FE00051E069E471E08DEE91E00E9494147C016F
:101FF000009799F048E050E064E571E00E94962077
:10200000892B09F0B8C04BEE51E069E471E090E033
:1020100080E00E9494140E9487071092ED011092B4
:10202000EA01CBCF10925B0210925C0210925D022B
:1020300010925E0210925F021092510210925202B0
:1020400010925302109254021092550210925602AE
:1020500010925702109258020E943A0360934D0268
:1020600070934E0280934F0290935002BCCE8091A9
:102070005A0290915902891709F4E1CE813009F092
:10208000DECE80913B026AE00E94301E9111D7CED5
:1020900020913702309138024091390250913A0232
:1020A0006091490270914A0280914B0290914C02DA
:1020B0000E94631B882309F4C2CE69E472E08AE0BF
:1020C00090E00E94500865E472E08EE090E00E948B
:1020D000500861E472E082E190E00E9450086DE3F4
:1020E00072E086E190E00E94500880914902909150
:1020F0004A02A0914B02B0914C0280933702909318
:102100003802A0933902B0933A0299CE80915A02D4
:1021100090915902891709F450CF6AE00E94301E4D
:1021200091114BCF61E070E0CE0107960E947606D8
:102130006BE471E0CE010D960E941F07BE01695F3E
:102140007F4FCE010D960E943806BC01CE0101964C
:102150000E940507CE0101960E943C07CE01019620
:102160000E943407CE010D960E943407CE010796D7
:102170000E94340722CF48E050E06AE571E0C701D1
:102180000E949620892B09F030C14BEE51E069E4A2
:1021900071E090E080E00E94941460917C02CE0196
:1021A00007960E94D80670E060E0CE010D960E946E
:1021B000760660E571E0CE0143960E941F07BE01DE
:1021C000635F7F4FCE0143960E94380669E471E059
:1021D0000E942206BE01695F7F4F0E943806BC0143
:1021E000CE0101960E940507CE0101960E943C0790
:1021F000CE0101960E943407CE0143960E94340717
:10220000CE010D960E943407CE0107960E94340736
:1022100060917D02CE0107960E94D80661E070E0D1
:10222000CE010D960E94760660E571E0CE014396E0
:102230000E941F07BE01635F7F4FCE0143960E943D
:10224000380669E471E00E942206BE01695F7F4F93
:102250000E943806BC01CE0101960E940507CE01FE
:1022600001960E943C07CE0101960E943407CE01E0
:1022700043960E943407CE010D960E943407CE018A
:1022800007960E94340760917E02CE0107960E9455
:10229000D80662E070E0CE010D960E94760660E5F9
:1022A00071E0CE0143960E941F07BE01635F7F4F1E
:1022B000CE0143960E94380669E471E00E9422062E
:1022C000BE01695F7F4F0E943806BC01CE010196B6
:1022D0000E940507CE0101960E943C07CE0101969F
:1022E0000E943407CE0143960E943407CE010D961A
:1022F0000E943407CE0107960E94340760917F0246
:10230000CE0107960E94D80663E070E0CE010D96DC
:102310000E94760660E571E0CE0143960E941F0799
:10232000BE01635F7F4FCE0143960E94380669E489
:1023300071E00E942206BE01695F7F4F0E9438064D
:10234000BC01CE0101960E940507CE0101960E94B4
:102350003C07CE0101960E943407CE0143960E94AD
:102360003407CE010D960E943407CE0107960E94D5
:10237000340760918002CE0107960E94D80664E07F
:1023800070E0CE010D960E94760660E571E0CE0108
:1023900043960E941F07BE01635F7F4FCE014396A5
:1023A0000E94380669E471E00E942206BE01695F5E
:1023B0007F4F0E943806BC01CE0101960E9405079E
:1023C000CE0101960E943C07CE0101960E9434077F
:1023D000CE0143960E943407CE010D960E94340729
:1023E000CE0107960E94340718CE48E050E061E61F
:1023F00071E0C7010E949620892B69F44BEE51E0F1
:1024000069E471E090E080E00E9494140E941A0553
:102410000E94800800CE48E050E069E671E0C70104
:102420000E949620892B09F059C04BEE51E069E4D7
:1024300071E090E080E00E949414109249021092A2
:102440004A0210924B0210924C02109245021092D6
:1024500046021092470210924802109241021092D6
:102460004202109243021092440210923D021092D6
:102470003E0210923F021092400269E472E08AE04C
:1024800090E00E94500865E472E08EE090E00E94C7
:10249000500861E472E082E190E00E9450086DE330
:1024A00072E086E190E00E94500869E472E08AE000
:1024B00090E00E94960565E472E08EE090E00E9454
:1024C000960561E472E082E190E00E9496056DE37A
:1024D00072E086E190E00E9496059DCD48E050E0D4
:1024E00062E771E0C7010E949620892B09F043C082
:1024F0004BEE51E069E471E090E080E00E949414BA
:10250000009791F00E944F14909303018093020171
:1025100062E071E090E080E00E942C0862E071E0EF
:1025200090E080E00E9482056091020170910301B9
:10253000CE0107960E9476066AE771E0CE010D96FD
:102540000E941F07BE01695F7F4FCE010D960E945A
:102550003806BC01CE0101960E940507CE01019606
:102560000E943C07CE0101960E943407CE010D96D1
:102570000E94340735CF48E050E060E871E0C701C1
:102580000E949620892B09F03FC04BEE51E069E490
:1025900071E090E080E00E9494140097F9F00E94AE
:1025A0004F1490930101809300018091000190915C
:1025B0000101909359038093580360E071E082E039
:1025C00090E00E942C086091000170910101CE0101
:1025D00007960E94760666E871E0B0CF0AE010E048
:1025E000F12CE12C80915E030E94CF02E80EF91ECF
:1025F00001501109B9F7C701B1010E943C1E709347
:10260000010160930001D1CF48E050E06BE871E038
:10261000C7010E949620892BC9F44BEE51E069E472
:1026200071E090E080E00E9494140E946D14609329
:1026300060027093610280936202909363020E9431
:1026400015030E941A050E948008E7CC48E050E07C
:1026500061E971E0C7010E949620892B09F07BC0D7
:102660004BEE51E069E471E090E080E00E94941448
:102670004BEE51E069E471E090E080E00E94941438
:102680000E944F148C014BEE51E069E471E090E040
:1026900080E00E9494140E944F147C014BEE51E0A4
:1026A00069E471E090E080E00E9494140E944B1471
:1026B000AB01BC01CE0107960E94A206B701CE0174
:1026C0000D960E947606B801CE0143960E947606CA
:1026D000B801CE014F960E947606BE01615E7F4F23
:1026E000CE0149960E94050764E971E0CE01499642
:1026F0000E942206BE016D5E7F4F0E94380664E98B
:1027000071E00E942206BE01635F7F4F0E9438067F
:1027100064E971E00E942206BE01695F7F4F0E945A
:102720003806BC01CE0101960E940507CE01019634
:102730000E943C07CE0101960E943407CE014996C3
:102740000E943407CE014F960E943407CE01439673
:102750000E94340741CE6091EA01CE0107960E94A3
:10276000D80668E971E0EACE082E000C990B0E94A9
:102770007F20892B09F421CCE091EA0161E06E0F02
:102780006093EA01F0E0E351FE4F1083E62FF0E0A2
:10279000E351FE4F1082603408F40FCCCE0107964F
:1027A0000E94D8066CEA71E0CE010D960E941F07C8
:1027B000BE01695F7F4FCE010D960E943806BC01B5
:1027C000CE0101960E940507CE0101960E943C07AA
:1027D000CE0101960E943407CE010D960E94340767
:1027E000CE0107960E9434071ACC80913202909154
:1027F0003302A0913402B091350240912E025091E3
:102800002F02609130027091310284179507A6075C
:10281000B70741F080932E0290932F02A0933002CD
:10282000B093310280915A0290915902891380939A
:10283000590280E090E0892B11F40C947B0B0E94EC
:10284000E201882311F40C947B0B0E9400000C948D
:102850007B0B82E593E00C943407EF920F931F9368
:10286000CF93DF93E80134E047FD34E1042E000C00
:10287000550B57FF03C0519541955109E32E022F87
:10288000242FAE010E940717CE01DF91CF911F9137
:102890000F91EF900895662777270C946618FC0136
:1028A00088279927E89421912032E9F3293010F004
:1028B0002E30C8F32B3241F02D3239F4689404C025
:1028C0000E94DB14820F911D219120532A30C0F306
:1028D0001EF4909581959F4F08951F93FC019927B1
:1028E0008827BC01E89411911032E9F3193010F0F7
:1028F0001E30C8F31B3251F01D3249F4689406C0F3
:102900000E94C614610F711D811D911D11911053FC
:102910001A30B0F33EF490958095709561957F4F95
:102920008F4F9F4F1F910895FA01A191B081009799
:1029300019F41097E1F0CD01DC01CD010D900020DC
:1029400011F4C00113C0FB012191222319F02015BD
:10295000D9F7F3CFFB012191201519F41E9211969E
:1029600006C02223C1F70D900020A1F7D001FA0183
:10297000A193B0830895BB274A3031F4992322F400
:10298000BDE2909581959F4F0C94E414592F482FE8
:10299000372F262F660F771F881F991F660F771F07
:1029A000881F991F620F731F841F951F660F771F63
:1029B000881F991F08957AE0979F902D879F802DFB
:1029C000910D11240895BB27FB015527AA27880FD5
:1029D000991FAA1FA41710F0A41B83955051B9F793
:1029E000A05DAA3308F0A95DA193009779F7B11112
:1029F000B1931192CB010C94C51AAEE0B0E0E3E0C4
:102A0000F5E10C94B91C0D891E898F89988D2EE0F3
:102A10002C831A83098397FF02C080E090E8019716
:102A20009E838D83AE01455E5F4F698D7A8DCE01A9
:102A300001960E942D154D815E8157FD0AC02F81A0
:102A40003885421753070CF49A01020F131FF8013F
:102A500010822E96E4E00C94D51CABE0B0E0E3E3EA
:102A6000F5E10C94AB1C7C013B018A01FC0117824F
:102A70001682838181FFC8C1CE0101965C01F701F6
:102A80009381F30193FD859193FF81913F01882309
:102A900009F453C1853239F493FD859193FF8191F7
:102AA0003F01853229F4B70190E00E94D51AE7CFA3
:102AB000912C212C312CFFE1F31538F08B3211F1E0
:102AC00090F4803209F1833229F137FC3CC020EDCB
:102AD000280F2A3050F536FE20C08AE0989E200D3F
:102AE0001124922E06C08D3291F0803371F76894D4
:102AF00030F8F30193FD859193FF81913F0181119E
:102B0000DACF21C0689431F8689432F8F2CF689433
:102B100033F8EFCF689434F8ECCFEAE02E9E200D26
:102B20001124222E689435F8E4CF8E3229F436FC35
:102B300004C1689436F8DDCF8C3619F4689437F800
:102B4000D8CF8836B1F2982F9F7D95549330E0F01E
:102B50008336A1F18337C1F1833509F063C02801C1
:102B6000F2E04F0E511CF801C080D180692D70E059
:102B700036FC02C06FEF7FEFC6010E94AF1A4C0116
:102B8000689437F882010AC00C5F1F4FFFE3F98396
:102B900088248394912C6501E89437F833FE2DC086
:102BA000522C8114910471F5552009F468CFB701B6
:102BB00080E290E00E94D51A5A94F6CFF801808105
:102BC00089830E5F1F4FE4CF2801F2E04F0E511CA6
:102BD000F801C080D180692D70E036FC02C06FEF33
:102BE0007FEFC6010E94BA1A4C018201D5CFB7010E
:102BF00080E290E00E94D51A2A942814190409F062
:102C0000B0F7CECFF60137FC859137FE81916F0189
:102C1000B70190E00E94D51A51105A94F1E08F1A32
:102C20009108BFCF843619F0893609F077C0F801D2
:102C300037FE6BC060817181828193810C5F1F4F71
:102C4000F32DFF763F2E97FF09C0909580957095E4
:102C500061957F4F8F4F9F4F689437F82AE030E09F
:102C6000A5010E94051BC82ECA188C2C432C36FEC9
:102C70000CC0E89440F8C91440F434FE05C032FC9E
:102C800003C0F32DFE7E4F2E892C44FE95C0FE011D
:102C9000EC0DF11D8081803309F087C0242D297E41
:102CA000422E842D8870582E43FC95C040FE8FC064
:102CB0009C2C821418F42C0C922C981844FE91C071
:102CC000B70180E390E00E94D51A42FE09C088E770
:102CD00090E041FE02C088E590E0B7010E94D51A5D
:102CE000C91408F48AC0CA94D12C9FEFC91AD90A12
:102CF000CA0CDB1CF60182916F01B70190E00E94C3
:102D0000D51AAC14BD04B1F74FCF60817181072E85
:102D1000000C880B990B0E5F1F4F92CFD32CE894B9
:102D2000D4F82AE030E0853739F1232D297FD22EDF
:102D30008F3601F148F48835A9F0F7018681978133
:102D40002B96E2E10C94C71C803749F08837A9F72D
:102D5000D4FE02C06894D2F820E130E00DC068943F
:102D6000D4F8F6CF34FE03C0822F8660D82E20E13F
:102D700032E002C028E030E0F801D7FE0FC06081E9
:102D80007181828193810C5F1F4FA5010E94051BF9
:102D9000C82ECA183D2CE89437F867CF608171813E
:102DA00090E080E00E5F1F4FF0CF42FC02C08394A2
:102DB00078CF8394839475CF842D867809F471CF6E
:102DC000F6CFB70180E290E00E94D51A8394821476
:102DD000C0F3512C73CF522C5818821408F46ECFC4
:102DE000F8CF842D867809F47BCF8BE241FE80E218
:102DF00047FC8DE2B70190E071CFB70180E390E02E
:102E00000E94D51A9A946CCF8FEF9FEF99CFA9E0CB
:102E1000B0E0EDE0F7E10C94B11C6A01F22EB02EA7
:102E2000102FFBE3AF2EA01608F41BE31F5F012F4A
:102E300027E0AE014F5F5F4F0E94B619BC01898148
:102E4000982F9970913009F43FC09BE2E1FC04C0D7
:102E50009E2D9170E0FC3AC05E2D5071E82FE87015
:102E600083FF46C084E0911101C083E0EF2DE81B91
:102E70008F1508F0E0E0D6018E2F20E2552351F1A6
:102E8000992329F0D6019C93C60101966C01960105
:102E90002D5F3F4FE2FE24C08EE4D6018C9391E477
:102EA00011969C93119712968C93D9018E2F90E2D4
:102EB00081111BC0E20FF32FF11D10828EEF9FEFE7
:102EC0002996ECE00C94CD1C9DE2C6CF90E2C4CFD5
:102ED0002D9381508111FCCFCE0ED11CE0E0D0CFDC
:102EE0008EE6D6018C9391E6DBCF9D938150E0CFA7
:102EF000482F447082FF3DC084E0911101C083E0FF
:102F00008F1510F4EF2DE81BD6018E2F20E25523EC
:102F100009F1992329F0D6019C93C60101966C0111
:102F200096012D5F3F4FE2FE1BC089E4D6018C93D2
:102F30008EE411968C93119786E412968C93D901A6
:102F40008E2F90E2882309F4B5CF9D938150FACF5C
:102F50002D9381508111FCCFCE0ED11CE0E0D9CF52
:102F600089E6D6018C938EE611968C93119786E6AE
:102F7000E4CF9B0177FF02C030E020E0A1E0B0E0A9
:102F8000911102C0B0E0A0E0F9013196AE0FBF1F71
:102F90008B2C912CBB2009F461C05401EFEFAE1AC9
:102FA000BE0AAA0DBB1DFA161B0619F014F04F2D10
:102FB0004A1B511188C0E3FC59C07601A42FB0E22E
:102FC000A1114FC0C40ED11C992309F45BC040E08D
:102FD000D6011196F60190836D01552309F448C07E
:102FE000012F060F9A81582F507184FF03C091332F
:102FF00009F4015010160CF047C0093008F008E041
:10300000EEE2FE2E5B01A01AB10885019194819435
:1030100091082F3F320729F4D601FC92F601319630
:103020006F016217730794F1021713077CF5DB0138
:10303000A21BB30BAA24A394B12CAC0EBD1EAA0DE7
:10304000BB1D11968C9121503109D601119628157E
:103050003905F4F0F60180836D01DBCFB12CA12C92
:10306000A0CFF701B1937F01A150AACF9111B0CFAA
:10307000D601942F50E302C05D9391509111FCCF83
:10308000C40ED11C40E0ACCF01E0BACF80E3DBCF6F
:103090006217730731F4963388F4953311F455238E
:1030A00069F0F6018083FD01842F90E2811108C050
:1030B000A40FB11D1C9290E080E002CF81E3F1CF1C
:1030C00091938150F3CF911183CF8ACFB0E0A0E0EC
:1030D000ECE6F8E10C94B11C5C017B016115710513
:1030E00019F0DB018D939C9385010F5F1F4FF50154
:1030F000D0818D2F90E00E948E1A6C01892BB9F53A
:10310000DD32B9F50F5F1F4FD5011196DC91C1E09B
:103110005801F1E0AF1AB10843E050E060E770E019
:10312000C5010E94971A892B69F5680182E0C80ED3
:10313000D11C45E050E06BE670E0C6010E94971A92
:10314000892B21F4680197E0C90ED11CE114F10428
:1031500019F0D701CD92DC9260E070E080E89FEF3B
:10316000C111FFC060E070E080E89FE7FAC058013D
:10317000BBCFDB3229F485010E5F1F4FF501D181F2
:10318000C0E0C6CF43E050E068E670E0C5010E94B1
:10319000971A892BE9F0F80110E000E020E030E018
:1031A000A9015F01B0ED8B2E8D0E89E08815C8F165
:1031B0009C2E689491F88C2F8870C2FF16C08111E4
:1031C00002C00F5F1F4F3196D501DC91C92DE9CFA9
:1031D000E114F10429F00E5F1F4FF7011183008302
:1031E00060E070E080EC9FE7BCC0882311F00150E4
:1031F0001109A5E0B0E00E94A01C9B01AC01220FC8
:10320000331F441F551F280D311D411D511D2839E5
:1032100099E93907490799E15907A8F2C6609C2E38
:10322000D2CFAEEF8A1206C0C3FD3CC09C2E68947C
:1032300093F8C9CFDF7DD534A9F580818D3239F47B
:10324000C061DF011296818162E070E006C0DF019B
:103250008B32C1F3119661E070E080535D01A61AD4
:10326000B70A8A30F8F4E0E8CE16ECE0DE065CF44B
:10327000B601660F771F660F771FC60ED71ECC0CE0
:10328000DD1CC80ED11C5D01FFEFAF1ABF0A8C9187
:1032900080538A30A8F1C4FF03C0D194C194D108EF
:1032A0000C0D1D1DC1FF09C0E114F10431F081E0D6
:1032B000A81AB108D701AD92BC92CA01B9010E9407
:1032C000681BC370C33009F490584B015C0120E0C7
:1032D00030E0A9010E94631B882309F440C0CFE9B4
:1032E000D0E017FF05C0119501951109C7E8D0E09E
:1032F0006E01B8E1CB1AD10880E2E82EF12C0FC0A4
:10330000D501B1CFFE0125913591459154910E190A
:103310001F09C501B4010E94C91B4B015C01D50105
:10332000C4010E151F0574F72497F594E794CC1685
:10333000DD06A9F78A2F880F8B2F881F8F3F49F052
:1033400020E030E0A901C501B4010E94631B811196
:1033500006C082E290E09093600380935F03C50112
:10336000B401CDB7DEB7ECE00C94CD1C283008F0EA
:1033700027E03327DA01990F311D87FD9160009610
:103380006105710539F432602E5F3D9330E32A9573
:10339000E1F708959F3F30F080387105610509F02D
:1033A0003C5F3C5F3D93913008F08068911DDF9356
:1033B000CF931F930F93FF92EF92192F987F9695BB
:1033C000E92F96959695E90FFF27E350FF4F992730
:1033D0003327EE24FF24A701E70105900894079402
:1033E00028F4360FE71EF81E491F511D660F771F80
:1033F000881F991F0694A1F70590079428F4E70EFB
:10340000F81E491F561FC11D770F881F991F661F81
:103410000694A1F70590079428F4F80E491F561F4B
:10342000C71FD11D880F991F661F771F0694A1F72C
:103430000590079420F4490F561FC71FD81F990FF6
:10344000661F771F881F0694A9F78491109517703F
:1034500041F0D695C79557954795F794E7941A95F7
:10346000C1F7E3EAF0E06894159015913591659104
:10347000959105907FE27395E118F10A430B560B85
:10348000C90BD009C0F7E10CF11E431F561FC91F1D
:10349000D01D7EF4703311F48A95E6CFE894015084
:1034A00030F0080F0AF40027021708F4202F2395A4
:1034B000022F7A3328F079E37D932A95E9F710C03B
:1034C0007D932A9589F60694979567953795179574
:1034D0001794E118F10A430B560BC90BD00998F069
:1034E00023957E9173957A3308F070E37C932013D3
:1034F000B8F77E9170617D9330F0839571E37D9391
:1035000070E32A95E1F71124EF90FF900F911F913E
:10351000CF91DF91992787FD9095089591110C9493
:10352000361C803219F089508550C8F70895FB0188
:10353000DC014150504088F08D9181341CF08B3576
:103540000CF4805E659161341CF06B350CF4605EA8
:10355000861B611171F3990B0895881BFCCFFC0148
:103560000590615070400110D8F7809590958E0FAE
:103570009F1F0895FC016150704001900110D8F721
:10358000809590958E0F9F1F0895DC01FC01672F99
:1035900071917723E1F7329704C07C916D9370832A
:1035A0006291AE17BF07C8F308950F931F93CF938F
:1035B000DF93182F092FEB018B8181FD09C01FEFCD
:1035C0000FEF812F902FDF91CF911F910F910895D1
:1035D00082FF14C02E813F818C819D81281739077D
:1035E0003CF4E881F981CF010196998388831083A7
:1035F0008E819F8101969F838E83E3CFE885F98535
:10360000812F0995892BA1F3DACFFA01AA27283057
:1036100051F1203181F1E8946F936E7F6E5F7F4F9F
:103620008F4F9F4FAF4FB1E03ED0B4E03CD0670F1B
:10363000781F891F9A1FA11D680F791F8A1F911D6E
:10364000A11D6A0F711D811D911DA11D20D009F4BE
:1036500068943F912AE0269F11243019305D319300
:10366000DEF6CF010895462F4770405D4193B3E0E9
:103670000FD0C9F7F6CF462F4F70405D4A3318F090
:10368000495D31FD4052419302D0A9F7EACFB4E041
:10369000A6959795879577956795BA95C9F70097F9
:1036A0006105710508959B01AC010A2E069457959A
:1036B000479537952795BA95C9F7620F731F841FF1
:1036C000951FA01D08950E94A51B08F481E0089590
:1036D000E89409C097FB3EF49095809570956195AC
:1036E0007F4F8F4F9F4F9923A9F0F92F96E9BB2762
:1036F0009395F695879577956795B795F111F8CFDE
:10370000FAF4BB0F11F460FF1BC06F5F7F4F8F4F48
:103710009F4F16C0882311F096E911C0772321F03E
:103720009EE8872F762F05C0662371F096E8862FD6
:1037300070E060E02AF09A95660F771F881FDAF72D
:10374000880F9695879597F90895990F0008550F5A
:10375000AA0BE0E8FEEF16161706E807F907C0F017
:1037600012161306E407F50798F0621B730B840B1F
:10377000950B39F40A2661F0232B242B252B21F4F9
:1037800008950A2609F4A140A6958FEF811D811D99
:1037900008950E94DC1B0C94501C0E94421C38F0BF
:1037A0000E94491C20F0952311F00C94391C0C94B4
:1037B0003F1C11240C94841C0E94611C70F3959F83
:1037C000C1F3950F50E0551F629FF001729FBB2718
:1037D000F00DB11D639FAA27F00DB11DAA1F649FB4
:1037E0006627B00DA11D661F829F2227B00DA11D67
:1037F000621F739FB00DA11D621F839FA00D611DED
:10380000221F749F3327A00D611D231F849F600D0D
:10381000211D822F762F6A2F11249F5750409AF036
:10382000F1F088234AF0EE0FFF1FBB1F661F771FC2
:10383000881F91505040A9F79E3F510580F00C948D
:10384000391C0C94841C5F3FE4F3983ED4F38695B6
:1038500077956795B795F795E7959F5FC1F7FE2B2D
:10386000880F911D9695879597F908959927882730
:10387000089597F99F6780E870E060E008959FEFF2
:1038800080EC089500240A941616170618060906F7
:10389000089500240A9412161306140605060895C6
:1038A000092E0394000C11F4882352F0BB0F40F44E
:1038B000BF2B11F460FF04C06F5F7F4F8F4F9F4F8E
:1038C000089557FD9058440F551F59F05F3F71F010
:1038D0004795880F97FB991F61F09F3F79F0879577
:1038E0000895121613061406551FF2CF4695F1DF00
:1038F00008C0161617061806991FF1CF8695710590
:10390000610508940895E894BB2766277727CB01C3
:1039100097F90895F999FECF92BD81BDF89A99273C
:1039200080B50895262FF999FECF1FBA92BD81BDAB
:1039300020BD0FB6F894FA9AF99A0FBE0196089531
:103940000E94E21CA59F900DB49F900DA49F800D36
:10395000911D112408952F923F924F925F926F9282
:103960007F928F929F92AF92BF92CF92DF92EF920F
:10397000FF920F931F93CF93DF93CDB7DEB7CA1B90
:10398000DB0B0FB6F894DEBF0FBECDBF09942A88BB
:10399000398848885F846E847D848C849B84AA8463
:1039A000B984C884DF80EE80FD800C811B81AA81F0
:1039B000B981CE0FD11D0FB6F894DEBF0FBECDBFBB
:1039C000ED010895A29FB001B39FC001A39F700DA8
:1039D000811D1124911DB29F700D811D1124911D17
:1039E00008955058BB27AA270E94091D0C94501C0B
:1039F0000E94421C38F00E94491C20F039F49F3F7D
:103A000019F426F40C943F1C0EF4E095E7FB0C949B
:103A1000391CE92F0E94611C58F3BA17620773071B
:103A20008407950720F079F4A6F50C94831C0EF416
:103A3000E0950B2EBA2FA02D0B01B90190010C01BE
:103A4000CA01A0011124FF27591B99F0593F50F4D6
:103A5000503E68F11A16F040A22F232F342F44272E
:103A6000585FF3CF469537952795A795F040539526
:103A7000C9F77EF41F16BA0B620B730B840BBAF0F6
:103A80009150A1F0FF0FBB1F661F771F881FC2F761
:103A90000EC0BA0F621F731F841F48F48795779575
:103AA0006795B795F7959E3F08F0B0CF9395880F2F
:103AB00008F09927EE0F9795879508950E94721D3B
:103AC0000C94501C0E94491C58F00E94421C40F06B
:103AD00029F45F3F29F00C94391C51110C94841C7B
:103AE0000C943F1C0E94611C68F39923B1F3552389
:103AF00091F3951B550BBB27AA2762177307840701
:103B000038F09F5F5F4F220F331F441FAA1FA9F396
:103B100035D00E2E3AF0E0E832D091505040E69584
:103B2000001CCAF72BD0FE2F29D0660F771F881FE5
:103B3000BB1F261737074807AB07B0E809F0BB0BD8
:103B4000802DBF01FF2793585F4F3AF09E3F5105EC
:103B500078F00C94391C0C94841C5F3FE4F3983E7D
:103B6000D4F3869577956795B795F7959F5FC9F7D5
:103B7000880F911D9695879597F90895E1E0660F56
:103B8000771F881FBB1F621773078407BA0720F0CF
:103B9000621B730B840BBA0BEE1F88F7E095089538
:103BA0000E94A51B08F48FEF089519F416F40C94E5
:103BB0003F1C0C941B1E0E94691CB8F39923C9F387
:103BC000B6F39F57550B87FF0E94291E0024A0E6DD
:103BD00040EA900180585695979528F4805C660FCE
:103BE000771F881F20F026173707480730F4621B1D
:103BF000730B840B202931294A2BA695179407941F
:103C0000202531254A2758F7660F771F881F20F097
:103C100026173707480730F4620B730B840B200D0F
:103C2000311D411DA09581F7B901842F9158880F4E
:103C30009695879508959F3F31F0915020F4879590
:103C400077956795B795880F911D9695879597F904
:103C5000089591505040660F771F881FD2F708953E
:103C6000991B79E004C0991F961708F0961B881FCE
:103C70007A95C9F780950895AA1BBB1B51E107C02F
:103C8000AA1FBB1FA617B70710F0A61BB70B881FEC
:103C9000991F5A95A9F780959095BC01CD0108957B
:103CA00097FB072E16F4009407D077FD09D00E94E9
:103CB0003C1E07FC05D03EF4909581959F4F0895DA
:103CC000709561957F4F0895A1E21A2EAA1BBB1B28
:103CD000FD010DC0AA1FBB1FEE1FFF1FA217B307D8
:103CE000E407F50720F0A21BB30BE40BF50B661FEE
:103CF000771F881F991F1A9469F7609570958095B2
:103D000090959B01AC01BD01CF0108950E94E21C7A
:103D1000332312F48A1B9B0B0C94901E0E94E21C0E
:103D2000B7FF0895821B930B0895EE0FFF1F0590B8
:103D3000F491E02D09940F931F93CF93DF9382307A
:103D4000910510F482E090E0E0916303F091640348
:103D500030E020E0B0E0A0E0309799F42115310583
:103D600009F44AC0281B390B24303105D8F58A8163
:103D70009B816115710589F1FB0193838283FE01AB
:103D800011C0408151810281138148175907E0F029
:103D90004817590799F4109761F012960C931297EF
:103DA00013961C933296CF01DF91CF911F910F9103
:103DB00008950093630310936403F4CF2115310534
:103DC00051F04217530738F0A901DB019A01BD01F8
:103DD000DF01F801C1CFEF01F9CF90936403809325
:103DE0006303CDCFFE01E20FF31F81939193225025
:103DF000310939832883D7CF209161033091620341
:103E0000232B41F420910601309107013093620386
:103E100020936103209104013091050121153105A2
:103E200041F42DB73EB74091080150910901241B80
:103E3000350BE0916103F0916203E217F307A0F400
:103E40002E1B3F0B2817390778F0AC014E5F5F4FF0
:103E50002417350748F04E0F5F1F509362034093BD
:103E60006103819391939FCFF0E0E0E09CCFCF93EB
:103E7000DF930097E9F0FC01329713821282A09140
:103E80006303B0916403ED0130E020E01097A1F4EA
:103E900020813181820F931F209161033091620351
:103EA0002817390709F061C0F0936203E0936103BA
:103EB000DF91CF910895EA01CE17DF07E8F54A8137
:103EC0005B819E0141155105B1F7E901FB83EA834E
:103ED00049915991C40FD51FEC17FD0761F48081FA
:103EE00091810296840F951FE901998388838281CD
:103EF00093819B838A83F0E0E0E012968D919C9100
:103F000013970097B9F52D913C911197CD01029629
:103F1000820F931F209161033091620328173907A4
:103F200039F6309751F51092640310926303B09301
:103F30006203A0936103BCCFD383C28340815181CC
:103F4000840F951FC817D90761F44E5F5F4F8881B2
:103F50009981480F591F518340838A819B819383A4
:103F600082832115310509F0B0CFF0936403E0930B
:103F700063039ECFFD01DC01C0CF13821282D7CF35
:103F8000B0E0A0E0E6ECFFE10C94AD1C8C010097E2
:103F900051F4CB010E949B1E8C01C801CDB7DEB746
:103FA000E0E10C94C91CFC01E60FF71F9C012250B4
:103FB0003109E217F30708F49DC0D901CD91DC91D6
:103FC0001197C617D70798F0C530D10530F3CE0149
:103FD00004978617970708F3C61BD70B2297C19340
:103FE000D1936D937C93CF010E94371FD6CF5B0195
:103FF000AC1ABD0A4C018C0E9D1EA0916303B091BA
:104000006403512C412CF12CE12C109731F5809157
:104010006103909162038815990509F05CC046160A
:10402000570608F058C0809104019091050100974F
:1040300041F48DB79EB74091080150910901841B4E
:10404000950BE817F90708F055C0F0936203E09369
:104050006103F90171836083A0CF8D919C911197C9
:1040600012966C90129713967C901397A815B90529
:1040700059F56C0142E0C40ED11CCA14DB0420F1D6
:10408000AC014A195B09DA011296159780F0628239
:10409000738251834083D9016D937C93E114F104C1
:1040A00071F0D7011396FC93EE93129776CF229678
:1040B0008C0F9D1FF90191838083F301EFCFF09363
:1040C0006403E093630369CF4816590608F42C0192
:1040D0007D01D3019ACFCB010E949B1E7C010097EA
:1040E00049F0AE01B8010E948620C8010E94371F26
:1040F000870153CF10E000E050CF803209F09111DA
:104100000C94361C80528F55D8F70895FB01DC01C2
:1041100002C001900D9241505040D8F70895FB0124
:10412000DC0101900D920020E1F70895FB01DC0114
:104130004150504030F08D910190801919F40020C9
:10414000B9F7881B990B089511E0CCE0D1E004C0C9
:10415000FE010E94951E2196CD30D107C9F7F89433
:02416000FFCF8F
:104162000002C8000000650380001F1C1F1E1F1EE6
:104172001F1F1E1F1E1F0000000018025F01A50165
:104182006502D601B401C8010D0A004D6573736161
:10419200676520746F6F206C6F6E67205B005D0037
:1041A200706F773B00636F6E663B007665723B0013
:1041B200696E3B0073746174650053746174757346
:1041C20000676574436F6E66007265736574506F45
:1041D2007700706F775468726500746872653A0090
:1041E20063616C69620063616C3A007874696D6541
:1041F20000666300202D2000436F6D6D616E6420A8
:104202006E6F7420666F756E643A2000436F6D6D39
:10421200616E6420746F6F206C617267653A200072
:00000001FF
